:020000040800F2
:100000009891002061020008C3690008D1470008E8
:10001000C169000853180008F982000800000000B8
:10002000000000000000000000000000A101000826
:100030008120000800000000FD010008FD7B000891
:100040007B0200087B0200087B0200087B0200089C
:100050007B0200087B0200087B0200087B0200088C
:100060007B0200087B020008252100087B020008B3
:10007000911E00087B0200087B0200087B0200083A
:100080007B0200087B0200087B0200087B0200085C
:10009000551800087B0200087B0200082B2100088D
:1000A0007B0200087B0200087B0200087B0200083C
:1000B000D17C00087B0200087B0200087B0200085C
:1000C0007B0200087B0200087B0200087B0200081C
:1000D0007B0200087B0200087B020008D98200082E
:1000E0007B0200087B0200087B0200087B020008FC
:1000F0007B0200087B0200087B0200087B020008EC
:100100007B0200087B0200087B0200087B020008DB
:100110007B0200087B0200087B0200087B020008CB
:100120009D1E0008A91E00087B020008B51E0008DD
:100130007B0200087B0200087B0200087B020008AB
:10014000991800087B0200087B0200087B02000867
:100150007B020008C11E00087B020008ED82000837
:100160007B0200087B0200087B0200087B0200087B
:100170007B0200087B0200087B02000800000000F0
:100180007B0200087B020008DFF810D001F044F980
:1001900000480047C1920008AFF30080989100200A
:1001A0002C4B19680868B0E8F04F80F30988BFF35A
:1001B0006F8F4FF0000080F311887047000000003F
:1001C00008480068006880F308884FF0000080F35A
:1001D000148862B661B6BFF34F8FBFF36F8F00DF35
:1001E00000BF00BF08ED00E0DFF80C00016841F43B
:1001F00070010160704700BF88ED00E0EFF30980F7
:10020000BFF36F8F134B1A681EF0100F08BF20ED5D
:10021000108A20E9F04F106009B44FF0500080F3CD
:100220001188BFF34F8FBFF36F8F09F043FE4FF07C
:10023000000080F3118809BC19680868B0E8F04F25
:100240001EF0100F08BFB0EC108A80F30988BFF3CE
:100250006F8F70471C000020EFF30580704700008F
:100260000648804706480047FEE7FEE7FEE7FEE750
:10027000FEE7FEE7FEE7FEE7FEE7FEE7C17C0008DB
:10028000890100089FED1A1AF5EE000A40EE010AF6
:10029000BDEEE00AF5EEC00A10EE100AF1EE10FA1B
:1002A00038BF401E00EE100A1349F7EE001AB8EEF0
:1002B000C00A30EEC00ADFED0F0A20EE200AFCEE85
:1002C000C00A10EE900AC0F3080000EE900A01EB9D
:1002D0008000F8EE600A90ED011A70EE600A90ED71
:1002E000000A71EEE01A21EE800A00EE810A7047E2
:1002F00083F9223E00000044D8A50008B5EEC00AEC
:10030000F1EE10FA07D2DFED1E0AB4EEE00AF1EECC
:1003100010FAA8BF7047DFED1B0AB5EEC00A60EE09
:10032000200ABDEEE01A11EE100AF1EE10FA38BF05
:10033000401E00EE100A1549F7EE001AB8EEC00A8A
:1003400030EEC00ADFED100A60EE200ABCEEE00AD3
:1003500010EE100AC0F3080000EE100A01EB800056
:10036000B8EE400A90ED011A70EEC00A90ED000A56
:1003700071EEE01A21EE800A00EE810A704700005B
:10038000CD024CB483F9223E00000044D8A50008F9
:1003900070B405880E884468D1F804C05368B5422B
:1003A00008D140884988884201BF11888D42518810
:1003B000884203D070BC6FF00200704705FB00F16B
:1003C000880827D094ED001ADCED000A94ED010AAC
:1003D000DCED011A31EE201AD4ED020A70EE211A7A
:1003E0009CED020A83ED001AC3ED011A94ED031A85
:1003F000DCED031A30EE800A401E71EE210A83ED17
:10040000020A04F11004C3ED030A03F110030CF116
:10041000100CD7D111F0030030D0B0F1004F30D222
:1004200000282BDD211F1B1FACF1040210F0010F6F
:100430000AD091ED010AD2ED010A091D121D30EE1C
:10044000200A83ED010A1B1D400817D091ED010A17
:10045000D2ED010A401E30EE200A83ED010A91ED33
:10046000020AD2ED020A01F1080102F1080230EE9F
:10047000200A83ED020A03F10803E7D170BC0020D3
:100480007047B4EC010A401EFCEC010A30EE200A71
:10049000A3EC010AF5D1F1E7018042804360704787
:1004A0002DE9F34F84B004984068009048680190AB
:1004B0000498B0F800E04588DFEDFE0A00200290C5
:1004C000B0EE600AAE4506D108884988884204BF6C
:1004D0007146864504D06FF0020006B0BDE8F08F8B
:1004E00001985FEA010C18BFB7EE001A3DD000BFBB
:1004F000BEEB0C0117D0B1F1004F80F01F82002934
:1005000011DD021F11F0010F1CBFC2ED010A121D07
:100510004B1006D0C2ED010AC2ED020A08325B1E82
:10052000F8D100EB8100BCF10102A0EC011A19D056
:10053000B2F1004F80F00882002A13DD031F12F091
:10054000010F1CBFC3ED010A1B1D511008D000BFD5
:10055000C3ED010AC3ED020A491E03F10803F7D1F6
:1005600000EB8200BCF1010CC2D14FF000080395F2
:10057000002D14BFB0EE602A002000F0BF8100BF44
:10058000009908FB05F001EB800B0199DBED002AD7
:1005900001EB80000346F0EE421AC64552D9AEEB9D
:1005A0000802ABEB850112F0010F17D001EB8501BA
:1005B00091ED000AB5EEC00AF1EE10FA07DDB4EED7
:1005C000E10AF1EE10FA09DDF0EE401A06E0B1EEB4
:1005D000400AF4EEC01AF1EE10FAF5D3521031D001
:1005E00001EB850C9CED000AB5EEC00AF1EE10FAA5
:1005F00005DDB4EEE10AF1EE10FA09DD06E0B1EE38
:10060000400AF4EEC01AF1EE10FA01D2F0EE401AF0
:1006100001EBC50191ED000AB5EEC00AF1EE10FA4A
:1006200005DDB4EEE10AF1EE10FA09DD06E0B1EE07
:10063000400AF4EEC01AF1EE10FA01D2F0EE401AC0
:10064000521ECDD1F5EEC01AF1EE10FA00F0738112
:10065000F5EEC02A0126F1EE10FA0099D4BFB1EEF2
:10066000620AB0EE620AB4EE610AF1EE10FA1CBF43
:10067000AEEB0802B2F1010C47D005FB08F201EB2A
:10068000820292ED001A00BFB0EE410A05FB06F4AB
:10069000B5EEC00A00EB8404F1EE10FACCBFF0EE28
:1006A000400AF1EE400AF4EE610AF1EE10FA28D1A8
:1006B000B5EB080C11D0BCF1004F7DD2BCF1000F9E
:1006C0000BDD00BF92ED000AD1ED000ABCF1010C78
:1006D000E2EC010AA1EC010AF4D129000ED0B1F13B
:1006E000004F6AD2002909DD94ED000AD0ED000A1E
:1006F000491EE4EC010AA0EC010AF5D101200290A8
:100700000BE0761CBCF1010CBED10298012804D08C
:10071000F5EEC02AF1EE10FA7ED09BED000AB5EBA3
:1007200008009A465946064622D0B0F1004F74D2CE
:1007300000281DDD091F10F0010F06D0F0EE400A61
:1007400080EEA01A81ED011A091D401010D000BFE3
:10075000D1ED010A401E80EE801A81ED011A91ED63
:10076000021AC1EE000AC1ED020A01F10801EFD13F
:10077000280026D0B0F1004F7ED2002821DDAAF15A
:10078000040110F0010F06D0D1ED010A80EE801AAD
:1007900081ED011A091D401013D000BFD1ED010AEF
:1007A000401E80EE801A81ED011AD1ED020A80EE22
:1007B000801A81ED021A01E0CBE0D6E001F10801D8
:1007C000ECD1DDE900124FF000095FEA0E0773D0AB
:1007D000C14504BF01EB860102EB850274D091EDA7
:1007E000000ADC465046331E35D01C46B6F1004F99
:1007F0007ED2002C2FDD0B1FABF1040C16F0010F85
:100800000FD0F0EE400ADCED011AB0EE601A00EEF7
:10081000E11A83ED011A01E08DE0B1E01B1D0CF13E
:10082000040C741015D000BFD3ED010A9CED011A21
:1008300040EE410AC3ED010AD3ED020A9CED021A13
:100840000CF1080C40EE410AC3ED020A0833641EA5
:10085000EAD101EB86012B0036D0B3F1004F72D202
:10086000002B31DDA2F1040CAAF1040013F0010FFA
:100870000CD0DCED010A00E08BE090ED011A001DC8
:1008800040EE410ACCED010A0CF1040C5C1019D0C9
:10089000DCED010A90ED011A40EE410ACCED010AAF
:1008A000DCED020A90ED021A083040EE410ACCED70
:1008B000020A03E0000000000DE005E0641E0CF1F8
:1008C000080CE5D102EB830201EB88017F1E09F1E0
:1008D00001097FF47DAF009808F10108001D009028
:1008E0000398401E03907FF44BAE0299012900E06B
:1008F00058E004BF06B0BDE8F08F00BFB5EEC00AF7
:10090000F1EE10FA7FF4E9AD04990EFB05F3002B2C
:100910004A684FF000010BD902EB810C9CED000AF4
:10092000B5EEC00AF1EE10FA02D1491C8B42F3D8A1
:100930008B427FF4D2AD6FF00400CEE5E0EC010A0B
:10094000491EFBD1EFE538E0E0EC010A521EFBD175
:1009500008E692ED000AD1ED000ABCF1010CE2ECD0
:10096000010AA1EC010AF4D1B7E694ED000AD0ED3A
:10097000000A491EE4EC010AA0EC010AF5D1BDE62B
:10098000D1ED000A401E80EE801AA1EC011AF7D1C9
:10099000EEE6D3ED000A401E80EE801AA3EC011AA9
:1009A000F7D10EE7BCEC011AD1ED000A5B1E40EE58
:1009B000410AE1EC010AF5D14DE7B0EC011AD2EDA4
:1009C000000A5B1E40EE410AE2EC010AF5D17BE72A
:1009D0002DE9F04F82B04668536801930588478837
:1009E0004B88002000900888874201BFB2F800C001
:1009F0006545528893421EBF6FF0020002B0BDE809
:100A0000F08F9FED412A4FEA970EC7F3400B00BFCE
:100A1000DDE9000202EB800A4A6898464FF00009BF
:100A2000B0EE420AB4465FEA0E0025D092ED001AFD
:100A3000DCED001A02EB8302DCED010A01EE810A13
:100A400092ED001A02EB8302401ED2ED001A02EB77
:100A5000830200EE810A9CED021ADCED030A000419
:100A60000CF1100C000C01EE210A92ED001A02EBC1
:100A7000830200EE810AD9D117F0030026D0ACF131
:100A80000404A2EB830210F0010F08D002EB8302F2
:100A9000D4ED010A92ED001A241D00EE810A5FEAEE
:100AA0000B0013D002EB830CD4ED010A9CED001A6D
:100AB00002EBC302401E00EE810AD4ED020A92ED61
:100AC000001A04F1080400EE810AEBD109F10100DB
:100AD000AAEC010A1FFA80F9486800EB8902A8F124
:100AE00001001FFA80F8B8F1000F99D1009806EBC9
:100AF0008706184480B20090681E05042D0C87D12B
:100B000002B00020BDE8F08F0000000070B405883E
:100B10000E884468D1F804C05368B54208D14088B3
:100B20004988884201BF11888D425188884203D08C
:100B300070BC6FF00200704705FB00F1880827D0F9
:100B400094ED001ADCED000A94ED010ADCED011AC7
:100B500031EE601AD4ED020A70EE611A9CED020AC1
:100B600083ED001AC3ED011A94ED031ADCED031AAC
:100B700030EEC00A401E71EE610A83ED020A04F1F4
:100B80001004C3ED030A03F110030CF1100CD7D1CC
:100B900011F0030030D0B0F1004F30D200282BDD2F
:100BA000211F1B1FACF1040210F0010F0AD091EDC0
:100BB000010AD2ED010A091D121D30EE600A83ED13
:100BC000010A1B1D400817D091ED010AD2ED010A60
:100BD000401E30EE600A83ED010A91ED020AD2ED6B
:100BE000020A01F1080102F1080230EE600A83ED09
:100BF000020A03F10803E7D170BC00207047B4EC8F
:100C0000010A401EFCEC010A30EE600AA3EC010A66
:100C1000F5D1F1E72DE9F04F02884768B0F802807E
:100C20004888D1F8049082B04FF0000A16468242FC
:100C300007BF098888456FF0020002B018BFBDE801
:100C4000F08F4FEA980B02EB42000190C8F340008E
:100C5000CDF8000009EB8A01BBF1000F33D00198F9
:100C600001EB820C01EB80043B46E64601EBC2053A
:100C70004FEA0B0093ED000A401E81ED000A93ED50
:100C8000010A01EB02118CED000A93ED020A0CEB54
:100C9000021C85ED000A93ED030A05EB021584EDB5
:100CA000000A04EB021403F11003E3D10EEB8200FF
:100CB00000EB820000EB8201ABF10100504307EB37
:100CC0000B1701EB001118F0030C21D03B1FA1EB17
:100CD00082011CF0010F06D093ED010A01EB8201A5
:100CE0001B1D81ED000A009880B100BF93ED010A41
:100CF00001EB820401EBC20184ED000A93ED020ACC
:100D0000401E81ED000A03F10803EFD107EB8C07C9
:100D10000AF101001FFA80FA701E0604360C99D100
:100D200002B00020BDE8F08F2DE9F05F05460020FD
:100D300092469B4688460646814640241BE028464C
:100D400041464746224600F0B0FA53465A46C01A7A
:100D5000914110D311461846224600F097FA2D1AF9
:100D600067EB01084F4622460120002100F08EFA71
:100D700017EB00094E41201EA4F10104DFDC4846B8
:100D800031462A464346BDE8F09F2DE9F041002454
:100D9000061B254671F1000605DA01240027D0EB79
:100DA000070067EB0101161E73F1000605DA002744
:100DB000D2EB0702012567EB0303FFF7B5FF864679
:100DC0000E4617469C46AC4204D00025D0EB050EDB
:100DD00065EB010624B10020D2EB000760EB030CA9
:100DE000704631463A466346BDE8F08140EA010369
:100DF0009B0703D009E008C9121F08C0042AFAD2D1
:100E000003E011F8013B00F8013B521EF9D2704794
:100E1000D2B201E000F8012B491EFBD2704700223C
:100E2000F6E710B513460A4604461946FFF7F0FFE9
:100E3000204610BD2DE9FE4F804681EA0300C00F19
:100E40000C46009021F0004123F00045B8EB020071
:100E5000A94105D24046214690461C460B46024613
:100E600023F00040104347D0270DC7F30A00C3F317
:100E70000A510290401A019040286BDAC3F3130024
:100E800040F4801B0098924620B10023D2EB030A65
:100E900063EB0B0B01985946C0F14002504600F03D
:100EA000F5F906460D4650465946019A00F00DFAEE
:100EB00010EB08006141002487EA115284EAE773CD
:100EC0001A4340D0009A62B3019A012A4FEA0752AE
:100ED00015DC001B61EB02014FF0004202EA0752F1
:100EE000CDE90042001C41F5801132462B4600F04E
:100EF00044FA03B0BDE8F08F40462146F9E7001BF5
:100F000061EB0201001C41F5801300185B412018C1
:100F1000A2F5001747EB030140EAD570B6196D4101
:100F200011E06D084FEA360645EAC0754FEA0752F0
:100F3000001B61EB0201001C41F5801149084FEADA
:100F400030000019514132462B4603B0BDE8F04F46
:100F500000F004BA0098012240000023D0EB020206
:100F600063EBE073009821464FEAE074B8EB0000B1
:100F700061EB0401E9E783F000435BE781F00041A6
:100F800058E72DE9FE4F81EA030404F0004421F004
:100F9000004100944FF0000B23F0004350EA01049D
:100FA0005ED052EA03045BD0C3F30A54C1F30A557E
:100FB0002C44A4F2F3340194A0FB0254C1F31301B6
:100FC00041F48011C3F3130343F4801301FB024483
:100FD00000FB034E840A970A44EA815447EA835788
:100FE000A4FB076802958D0A05FB07854FEA932C41
:100FF00004FB0C542705029D4FEA065847EA1637B2
:10100000B5EB08056EEB070C870E920E47EA8117C9
:1010100042EA8312A7FB0201B6EB0B0164EB00046A
:101020002B0D43EA0C335E1844EB1C50DA46514654
:10103000E7FB0201C5F313044FEA0B3343EA1453F1
:101040004FEA0432019C43EA0603A4F10C04029423
:10105000009CCDE900B400F090F903B0BDE8F08F3A
:1010600000200146F9E72DE9F04D81EA030404F080
:10107000004B21F0004514464FF0000A23F00041D8
:1010800050EA050220D054EA01021DD0C5F30A57E8
:101090000246C5F31303C1F31300C1F30A5640F42B
:1010A000801543F48013A7EB0608101BD64608F200
:1010B000FD3873EB050002D308F1010801E0921836
:1010C0005B41B8F1000F03DA00200146BDE8F08D66
:1010D00000204FF48011064684460EE0171B73EB88
:1010E000050705D3121B63EB050306434CEA010C0D
:1010F00049084FEA300092185B4150EA0107EDD1F0
:1011000052EA030012D082EA040083EA0501084390
:1011100005D0101BAB4106D20122002306E00022BD
:101120004FF0004302E06FF0010253101AEB06008B
:101130004CEB085110EB0A0041EB0B01BDE8F04D00
:1011400000F00CB90EB5C10F80EAE0700844CA0780
:10115000002140F233438DE80E000A460B4600F0B2
:101160000CF903B000BD3EB5CA17CB0F00245040A8
:101170005140C0186141DA0740F233430094CDE991
:1011800001232246234600F0F8F803B030BD70B5C5
:10119000C1F30A5201F000450024C1F3130140F2EB
:1011A000FF3341F480119A4201DA002070BD40F211
:1011B00033439A42A2F2334203DC524200F075F804
:1011C00000E090402C43F1D0404270BD00F000425E
:1011D00030F000400AD0C10D01F56071C0F3160077
:1011E00042EA0151C20840071143704700200146FE
:1011F0007047000030B5041E71F1000404DB4FF0AD
:101200000044404264EB0101141E73F1000405DB4D
:101210001C464FF00043524263EB04038B4208BF6D
:10122000824230BD30B5041E71F1000404DB4FF082
:101230000044404264EB0101141E73F1000405DB1D
:101240001C464FF00043524263EB0403994208BF2F
:10125000904230BD01F0004330B421F0004150EA2B
:10126000010206D00A0DA2F56072C1F31301002A33
:1012700002DC30BC00207047440F44EAC104C100C6
:10128000E01830BC00EBC25000F031B8202A04DB7B
:10129000203A00FA02F1002070479140C2F1200389
:1012A00020FA03F3194390407047202A04DB203AC8
:1012B00021FA02F00021704721FA02F3D040C2F176
:1012C00020029140084319467047202A06DBCB17BD
:1012D000203A41FA02F043EAE07306E041FA02F3F1
:1012E000D040C2F1200291400843194670470029BE
:1012F000A8BF7047401C490008BF20F0010070479C
:1013000010B4B0FA80FC00FA0CF050EA010404BFFB
:1013100010BC704749B1CCF1200421FA04F411FA51
:101320000CF118BF012121430843A3EB0C01CB1D95
:101330004FEA00614FEA102042BF002010BC704706
:1013400000EBC35010440029A4BF10BC7047401CE0
:10135000490008BF20F0010010BC704710B5141EF2
:1013600073F1000408DA401C41F1000192185B415E
:101370001A4301D120F0010010BD2DE9F04D924635
:101380009B4611B1B1FA81F202E0B0FA80F220324C
:101390009046FFF77BFF04460F4640EA0A0041EA09
:1013A0000B0153465A46084313D0114653EA010035
:1013B00019D0C8F140025046FFF777FF05460E46A8
:1013C000504659464246FFF761FF084305D00120C9
:1013D00004E020463946BDE8F08D0020054346EA8A
:1013E000E0762C4337430A986305E40AA0EB080033
:1013F0000022FD0A44EA47540A3002D50020014683
:10140000E9E7010510196941DDE90845001969415D
:10141000BDE8F04DA2E70000064C074D06E0E0688D
:1014200040F0010394E8070098471034AC42F6D32B
:10143000FEF7AEFE1CAE00083CAE000870B58C187E
:1014400010F8015B15F0070301D110F8013B2A11D8
:1014500006D110F8012B03E010F8016B01F8016BC5
:101460005B1EF9D12B0705D40023521E0DD401F8C1
:10147000013BFAE710F8013BCB1A921C03E013F88A
:10148000015B01F8015B521EF9D5A142D8D30020BF
:1014900070BD000001221021014801F009BE0000CA
:1014A0000000024000221021014801F001BE0000AE
:1014B0000000024001221146014801F0F9BD000080
:1014C0000004024000220121014801F0F1BD0000AA
:1014D000000402402DE9F0410446FFF7E3FF9220AB
:1014E00000F030F9764E0625922000F02BF95520B9
:1014F00000F028F906F8010B681E10F0FF05F6D180
:10150000FFF7C8FF6E4FA7F11C0878783978000202
:1015100000B2084300EE100AD8ED030AB8EEC00A84
:1015200060EE200A94ED080A60EE800AC4ED000A1D
:10153000F878B978000200B2084300EE900A98EDFE
:10154000031AF8EEE00A60EE810A60EE800AC4ED4C
:10155000010A78793979000200B2084300EE900A56
:10156000A8F80800F8EEE00A60EE810A20EE800A92
:1015700084ED020AFFF7A6FF3D460826802000F012
:10158000E1F8552000F0DEF805F8010B701E10F0B0
:10159000FF06F6D1FFF78EFF38780F285DD198F857
:1015A0000300B9780028F8784FEA002000B240EA3A
:1015B00001002CD000EE100AD4ED090AB8EEC01AD2
:1015C00098ED040A51EE000AC4ED030A78793979DE
:1015D000000200B2084300EE900A94ED0A1AF8EEF9
:1015E000E00A10EE801A84ED041AF879B979000245
:1015F00000B2084300EE900AA8F8080094ED0B1A18
:10160000F8EEE00A10EE801A84ED051A25E000EEEF
:10161000100AF8EEC00A98ED040A60EE800AC4EDE4
:10162000030A78793979000200B2084300EE900A83
:10163000F8EEE00A60EE800AC4ED040AF879B979A0
:10164000000200B2084300EE900AA8F80800F8EE85
:10165000E00A20EE800A84ED050AFFF723FFA220AE
:1016600000F070F8164E0225A22000F06BF855200D
:1016700000F068F806F8010B681E10F0FF05F6D1BF
:10168000FFF708FF38787978C00040EA5110A8F8D1
:101690000800B0F5806FA4BFA0F50060A8F80800AE
:1016A000B8F90800B4EE001A00EE100AF8EEC00A0D
:1016B000B3EE070A00EE810A84ED070ABDE8F08167
:1016C0008801002070B50D461649174C08600020AF
:1016D000A07007F0E7F8A1780843A07007F07EF942
:1016E000A1780843A0701DB1104800F087F916E0FA
:1016F0000E489FED0F0A80ED090A9FED0E0A80ED5E
:101700000A0A80ED0B0A9FED0C0A80ED0C0A9FED92
:101710000B0A80ED080A9FED0A0A80ED060AA07800
:1017200070BD0000B40100206C010020FC4E0020C0
:10173000AC38223BB016CE393F161B41C48B813FDB
:101740000000204201B582B04FF47A700090054845
:10175000012301AA02A9006802F0A4F99DF804007F
:1017600003B000BDB4010020B6EE000A92ED021AEB
:10177000F0EE401AD2ED030A41EE411A90ED002A34
:10178000D2ED002AD0ED013A40EEE01A21EE822A95
:10179000D2ED011A21EE813A02EEE03A61EEA00AA2
:1017A000F0EE001A42EE810A03EE232A90ED021AAF
:1017B00000EE812A62EE210AC1ED000A92ED011AC3
:1017C000D2ED023A92ED002AD2ED030A61EE232A0D
:1017D00090ED003A90ED014A42EE202A62EE832A13
:1017E000B0EE403A01EE413A00EEE03A63EEA00A74
:1017F00042EE410A43EE042A90ED021A40EE812A9D
:1018000062EEA10AC1ED010AD2ED010AD2ED032A6E
:1018100092ED021A92ED003A20EEA22A61EE222AFF
:10182000D0ED003A00EEE00A03EE412A43EE202A12
:1018300090ED013AD0ED020A01EE410A22EE232A90
:1018400002EE832A00EE202A22EE210A81ED020A0E
:101850007047FEE7014800F077BE000078070020DF
:1018600000B58BB000200121CDE906010891009060
:10187000019002900390059004906946054800F09D
:101880002FFD044801F0B8F80221024800F096FC50
:101890000BB000BD78070020014800F055BE0000E5
:1018A000A007002000B58BB0002001210E2203907C
:1018B0000490CDE90601CDE9081200900190029054
:1018C00005926946054800F00BFD044801F094F8C4
:1018D0000221024800F072FC0BB000BDA0070020FE
:1018E00081B00A2A24BF01B0704702EBC20202EBAA
:1018F0004202414B03EB420222F8170C22F81B1C58
:1019000032F81D0C081A22F8190C88B222F81D0CA6
:1019100012F81E0C363A38B901201076B2F81F00C2
:10192000A2F8210000B25060B2F81F00B2F82110F6
:10193000401AB2F9231000B201EBD1734FEA630CE5
:10194000CCF1000C844502DD0844401E00B2B0EB2F
:10195000630F02DD401A401C00B20090106800992D
:101960000023084410605068009908445060B2F8A1
:101970001F00A2F821005068B2F928104843B2F9BC
:10198000231090FBF1F000EE100AB8EEC00A10EE42
:10199000100A90601068B2F928104843B2F9231079
:1019A00090FBF1F000EE100AB8EEC00A10EE100A3B
:1019B0005061009892F8251000B2032916D292F8CF
:1019C000261099B1B2F92A108142A2BF4942884239
:1019D000C2F82E30D2F82E00BCBF401CC2F82E0038
:1019E000B2F92C108842C8BF012000DC002082F828
:1019F0002700009301B07047684800202DE9F04FA0
:101A000004462DED108B83B000200090019000F073
:101A10009BFADFF8FC83DFF8FCB388ED050ADFED05
:101A2000FEFA9FEDFEDA9FEDFEEAF4EE00EAF3EE39
:101A300007DA9FEDFCFADFF8F093DFF8F0A300BFC0
:101A400000F082FAF0EE400A98ED050A30EEC00A86
:101A500010EE100A584513DD9FEDF50A84ED090AD2
:101A60009FEDF40A84ED0A0A84ED0B0A9FEDF20A59
:101A700084ED0C0A9FEDF10A84ED060A00F0E6B948
:101A8000B0EE6F0A00F022FA84ED0CDA84ED09DA88
:101A900084ED0ADA84ED0BDAB8F806000027002896
:101AA00040F22381FFF7FEFC9220FFF74BFE6E46CB
:101AB00006259220FFF746FE5520FFF743FE06F865
:101AC000010B681E10F0FF05F6D1FFF7E3FC9DF84F
:101AD0000100D8ED030A000201B29DF8000008439E
:101AE00000EE100AB8EEC00A60EE201AC4ED001A2B
:101AF0009DF803009DF80210000200B2084300EEBA
:101B0000100AD8ED030AB8EEC00A20EE201A84EDC0
:101B1000011A9DF805009DF80410000200B2084368
:101B200000EE100AB8EEC00A60EE200A21EEA10A0B
:101B3000C4ED020A01EE010A00EEA00AB1EEC08A6D
:101B4000B4EE488AF1EE10FA03D006F061FEB0EE72
:101B5000408A94ED0C0A30EE080A84ED0C0AFFF777
:101B6000B1FC6E4608258020FFF7ECFD5520FFF7FD
:101B7000E9FD06F8010B681E10F0FF05F6D1FFF72E
:101B800099FC9DF800000F2840D19DF803009DF8B6
:101B90000210000200B2084300EE100AF8EEC00A7C
:101BA00098ED040A60EE800AC4ED030A94ED091A68
:101BB00071EE200AC4ED090A9DF805009DF8041095
:101BC000000200B2084300EE900AF8EEE00A60EE70
:101BD000800AC4ED040A94ED0A1A71EE200AC4EDDD
:101BE0000A0A9DF807009DF80610000200B208439B
:101BF00000EE900AF8EEE00A20EE800A84ED050A75
:101C0000D4ED0B0A30EE800A84ED0B0A002F00F0B1
:101C10002B81B4EEEC8AF1EE10FAC8BFF0EE48CAA0
:101C2000B4EECC8AF1EE10FAC8BFB0EE4C8AB0EE3A
:101C300048CA94ED030AB4EEE90AF1EE10FAC8BFFF
:101C4000F0EE409AB4EEE80AF1EE10FAD8BFF0EEEA
:101C5000408A94ED040AB4EECA0AF1EE10FAC8BF45
:101C6000B0EE40AAB4EEC90AF1EE10FAD8BFB0EE59
:101C7000409AD4ED05AAF4EEEBAAF1EE10FAC8BF33
:101C8000F0EE6ABAF4EECBAAF1EE10FAD8BFB0EEDD
:101C90006ABA7CEECC1A39EEE80A7AEE490AC8ED47
:101CA000061A3BEECB1A11EE900A89ED000AC9ED37
:101CB000010A89ED021AB0F17C5FDCBF10EE100A58
:101CC000504512DC10EE900A5045DCBF11EE100AB0
:101CD00050450ADCB0EE4E0A00F0F8F8781C87B2E6
:101CE000B8F806008742FFF4DDAEB8F80600D4ED80
:101CF0000C0A00EE100AB8EE400A80EE801A00EEE0
:101D0000100AB8EE400A84ED0C1AD4ED090A80EEF0
:101D1000801A00EE100AB8EE400A84ED091AD4EDDC
:101D20000A0A80EE801A00EE100AB8EE400A84ED2E
:101D30000A1AD4ED0B0A80EE801A84ED0B1AFFF715
:101D4000B1FBA220FFF7FEFC6E460225A220FFF7A2
:101D5000F9FC5520FFF7F6FC06F8010B681E10F0A1
:101D6000FF05F6D1FFF796FB9DF800009DF80110E6
:101D7000C00040EA5110B0F5806FA8BFA0F5006028
:101D800000EE100AF8EEC00AB0EE6D0A00EEAE0AE0
:101D900084ED060AB8F80400401CA8F80400D8F83E
:101DA0001800B0F17C5F3FF74BAE94ED0C0A30EEBB
:101DB0004F0AB0EEC00A10EE100AB0F17C5FDCBF33
:101DC000D9F8000050453FF73BAED9F80400504524
:101DD000DCBFD9F8080050453FF732AE94ED090A50
:101DE0001748B0EEC00A10EE101A81423FF728AE35
:101DF00094ED0A0AB0EEC00A10EE101A81423FF7C5
:101E00001FAE94ED0B0AB0EEC00A10EE101A19E0E6
:101E10006C010020000020410AD7A33B0000000015
:101E20006F12033ACDCC1C41F04E00209A99193E16
:101E3000AC38223BB016CE393F161B410000204281
:101E40000AD7233C81423FF7FBAD00BF94ED0C0A5B
:101E5000DFED0E0A80EE801A84ED081A03B0BDECA7
:101E6000108BBDE8F08F00BFD4ED039A94ED04AA67
:101E7000D4ED05BAF0EE48CAB0EE48CAF0EE698A71
:101E8000B0EE4A9AB0EE6BBA03E70000C3F51C410E
:101E9000014800F04FBE0000B0090020014800F0EA
:101EA00049BE000020080020014800F043BE0000A9
:101EB000100A0020014800F03DBE0000800800200C
:101EC000014800F037BE0000700A00200A4841684F
:101ED0000A4AD2ED000A4268521AF8EE601A01EE80
:101EE000102AB8EE411A60EE211AB4EEE11AF1EEB2
:101EF00010FAF0D370470000001000E090000020BE
:101F00000F4A81B0516800910168009B591A00EE98
:101F1000101A0C49F8EE400A91ED000A036050686F
:101F2000B8EE401A80EE810A00900A69904202D20F
:101F3000C868401CC8600098086101B07047000084
:101F4000001000E09000002010B500F043F80C48AD
:101F50009FED0C1A818890ED000A00EE901AC0885F
:101F6000B8EE400AF8EE600A00EE810A00EE900A30
:101F70009FED051AF8EE600A00EE810A10BD000020
:101F8000C00000206F12833ABD3786350D490A68BC
:101F900042F080720A600C4900224A600B6843F0EC
:101FA00001030B6009494FF47A734143B1FBF3F32A
:101FB00007484360054B0160B1FBF3F1C0E9021231
:101FC00070470000FCED00E0001000E040420F0010
:101FD000900000202DE9F043264883B0416801912C
:101FE0004068254C00902169884202D2E068401C7C
:101FF000E06000982061E268002501984FF0FF330F
:102000002946E2FB0301C4E90E01D4F8008007462B
:102010000E4642462B46FEF787FEC4E906010346FC
:10202000A3FB082001FB080003FB050CB81A66EBB4
:102030000C01DFF84880C4E908010646C8F8003002
:10204000D4F804900F464A460023FEF76DFE80B296
:10205000A8F8040000FB09F0301A67EB0501C4E999
:102060000A010023A268FEF75FFEA8F8060003B08D
:10207000BDE8F083001000E090000020C0000020C8
:1020800070470000234810B40168214C24234A699A
:1020900004F1240C42F040024A610168CA6842F02F
:1020A0001002CA60816B09680A6822F001020A60A6
:1020B000816B0968096811F0010F0BD0816B096809
:1020C0000A6822F001020A60816B0968096811F050
:1020D000010FF3D1826B01681268091D9160816B59
:1020E0000968CC60816B0968C1F810C0816B096810
:1020F0004B60816B09680A6842F480220A60806B39
:102100000068016841F00101016010BC70470000E7
:102110002048002028090020014805F067BC000085
:1021200028090020102000F0B7BE202000F0B4BE27
:102130000021016041608160416170470A2924BF2C
:102140000020704770B5054601EBC100174900EB50
:10215000400001EB4000A0F1360420463621FEF796
:102160005EFE84F82550002084F8270084F82600BD
:102170004FF400504DB10121012D04BFA4F82300FC
:10218000218511D0022D0AD00EE0A4F823001320DF
:1021900020850A2060854FF48070A08504E043F616
:1021A000FF70A4F823002185204670BD68480020F8
:1021B00072B6FEE7004870473C4D002090F82020A2
:1021C000012A18BF022A06D0416A41F480214162E7
:1021D0004FF0010070470068426942EA0101416125
:1021E0004FF00000704770B490F82040D0F800C065
:1021F000DCF808C0012C18BF022C07D0416A41F45A
:102200008021416270BC4FF0010070471CF0E05F1C
:102210005FD0CCF3016CBCF1020F06D9416A41F4E6
:102220000001416270BC01207047012404FA0CF4E3
:102230001C608C684FF4C0739CB1CD6803EB0C1626
:102240002C434D6844EAC5040568AC514FF4C27490
:10225000066804EB0C140D693551097D01290ED176
:1022600008E00D88CC6803EB0C1644EA4554056879
:10227000AC51EBE701680D5945F480750D511179AA
:10228000D479557941EA04619479240444EA052417
:1022900021434FF4C675046805EB0C1561511178A4
:1022A000D47841EA046194785278240444EA022202
:1022B00011434FF4C474026804EB0C14115100680C
:1022C00003EB0C11425842F00102425070BC002056
:1022D0007047416A41F40011416270BC01207047AF
:1022E00090F82020012A18BF022A06D0416A41F442
:1022F000802141624FF0010070473F48D0F8002232
:1023000042F00102C0F80022D0F8002222F47C52F0
:10231000C0F80022D0F800224B6A42EA0322C0F83B
:1023200000220A7D4FF0010302F01F0203FA02F2BD
:10233000D0F81C3223EA0203C0F81C32CB69DBB9A7
:10234000D0F80C3223EA0203C0F80C32B1F80CC00A
:102350004B686CF31F43D1F814C000EBCC0CCCF8E5
:102360004032B1F808C00B686CF31F43D1F814C0B9
:1023700000EBCC0CCCF84432CB69012B1AD1D0F84D
:102380000C321343C0F80C32B1F800C04B686CF348
:102390001F43D1F814C000EBCC0CCCF84032B1F89C
:1023A00008C0CB686CF31F43D1F814C000EBCC0C11
:1023B000CCF844328B69002BD0F804320CBF934325
:1023C0001343C0F804320B69002BD0F814320CBF51
:1023D00093431343C0F81432096A012904D1D0F899
:1023E0001C121143C0F81C12D0F8001221F0010198
:1023F000C0F800120020704700640040704710B41D
:1024000090F820C0BCF1010F18BFBCF1020F07D03B
:10241000416A41F48021416210BC4FF001007047D5
:10242000D0F800C029B1DCF810C01CF0030F7DD03B
:1024300004E0DCF80CC01CF0030F7ED04FF4D87C15
:1024400004680CEB011C54F80C4014F00404946074
:10245000046854F80C4007BF640D1460E40854602D
:10246000046854F80CC00CF0020CC2F80CC04FF415
:10247000DA7C04680CEB011C54F80C4004F00F04E7
:102480001461046854F80C40C4F307249461046890
:1024900054F80CC04FEA1C4CC2F814C04FF4DC7264
:1024A000D0F800C002EB01125CF802C083F800C053
:1024B000D0F800C05CF802C04FEA1C2C83F801C0C1
:1024C000D0F800C05CF802C04FEA1C4C83F802C090
:1024D000D0F800C05CF80220120EDA704FF4DE7201
:1024E000D0F800C002EB01125CF802C083F804C00F
:1024F000D0F800C05CF802C04FEA1C2C83F805C07D
:10250000D0F800C05CF802C04FEA1C4C83F806C04B
:10251000D0F800C05CF80220120EDA7100680029C1
:102520000CBFC168016941F0200100E005E00CBF6B
:10253000C1600161002010BC7047416A41F4001184
:10254000416210BC012070472DE9F05F054600682C
:1025500000244669D0F804908768D0F80CB0D0F811
:1025600010A0D0F8188016F0010F25D017F0010F39
:1025700007D00121816017F0020F7CD0284600F0BF
:102580006EFA17F4807F09D029684FF48070886054
:1025900017F4007F70D0284600F063FA17F4803FEC
:1025A0000AD029684FF48030886017F4003F00F0AB
:1025B000B980284600F057FA16F0080F18BF1BF034
:1025C000100F04D02968102044F40074C86016F07D
:1025D000040F4FF0080718BF1BF0080F04D028683D
:1025E000C760284600F0ECF916F0020F07D0286803
:1025F000C06810F0030F1CBF284600F0E3F916F086
:10260000400F18BF1AF0100F04D02968102044F4AE
:102610008064086116F0200F18BF1AF0080F04D06C
:1026200028680761284600F0E3F916F0100F07D07C
:102630002868006910F0030F1CBF284600F0D9F984
:1026400016F4003F18BF19F0100F05D029681020AC
:102650004860284600F0CEF916F4803F18BF19F004
:10266000080F04D028684760284600F0FDF916F4EA
:10267000004F78D001E035E044E019F0040F6FD04E
:1026800016F4807F1CBF18F0010F44F0010416F40B
:10269000007F1CBF18F0020F44F0020416F4806F94
:1026A0001CBF18F0040F44F0040416F4006F18BFA8
:1026B00018F0700F54D008F07000402808BF44F0A4
:1026C000400448D03EDC102808BF44F0080442D043
:1026D000202808BF44F010043DD0302808BF44F043
:1026E000200438E017F0040F18BF4FF400647FF4A3
:1026F00048AF17F0080F0ABF28464FF4805400F087
:10270000ADF93EE717F4806F18BF44F400547FF42E
:1027100045AF17F4006F0ABF284644F4804400F028
:102720009FF93BE717F4802F18BF44F400447FF46F
:1027300043AF17F4002F0ABF284644F4803400F05A
:1027400091F939E7502808BF44F0800403D060288D
:1027500008BF44F480742868816921F070018161A8
:10276000296804204860002C08BFBDE8F09F686A13
:10277000204368622846FFF741FEBDE8F09F000055
:10278000002804BF0120704770B5044690F820006F
:10279000002804BF204600F099F82068016841F045
:1027A0000101016000F08AFC0546206840684FF096
:1027B000050610F0010F09D100F080FC401B0A282B
:1027C00017D82068406810F0010FF5D02068016824
:1027D00021F00201016000F071FC054620684068AC
:1027E00010F0020F12D000BF00F068FC401B0A2856
:1027F00007D9606A40F40030606284F820600120EC
:1028000070BD2068406810F0020FEDD1207E0128D5
:10281000206801680CBF41F0800121F08001016057
:10282000607E0128206801680CBF41F0400121F062
:1028300040010160A07E0128206801680CBF41F0C2
:10284000200121F020010160E07E0128206801685C
:102850000CBF21F0100141F010010160207F012820
:10286000206801680CBF41F0080121F008010160F7
:10287000607F0128206801680CBF41F0040121F04D
:1028800004010160D4E902010843D4E904121143B0
:1028900008436168491E08432168C86100206062DE
:1028A000012084F82000002070BD90F82020002333
:1028B000012A18BF022A07D100684FEA81618068A7
:1028C00031EA000018BF012318467047F0B587B001
:1028D000002100910191029103910491334B06680C
:1028E000334918680224421C09253248A6F1804762
:1028F0004FF0030CB7F5C84712D0A6F18047B7F5E3
:10290000D0471CBF07B0F0BD066846F08066066081
:102910000668012A06F0806605961A602BD122E02F
:102920001A60012A07D1026842F000720260006852
:1029300000F000700590086840F008000860086822
:10294000CDE900C400F00800CDE904506946CDF897
:102950000CC0194800F0ACFA00220521142000F048
:102960004FFC14201EE0026842F000720260006812
:1029700000F000700590086840F0020008600868E8
:10298000694600F0020005906020CDE90004CDE921
:1029900003C50A4800F08CFA00220521402000F00F
:1029A0002FFC402000F01CFC07B0F0BD0800002008
:1029B0003038024040380240000C0240000402401F
:1029C0007047000010B504460748844204BF204603
:1029D00003F0F2FC0548844218BF10BD2046BDE854
:1029E000104006F099B9000078070020A0070020E9
:1029F000704770477047000070B5044690F820009B
:102A0000012804D0606A40F4002060621CE00220CB
:102A100084F820002068016821F00101016000F0C5
:102A20004DFB05462068406810F0010F13D000BF31
:102A300000F044FB401B0A2808D9606A40F40030CB
:102A40006062052084F82000012070BD2068406885
:102A500010F0010FECD10020606270BD704770472C
:102A6000704770477047704770472DE9F041044642
:102A7000876D00F023FB054694F8350000260228F8
:102A800006D08020606584F834600120BDE8F081C4
:102A90002068016821F0160101602068416921F079
:102AA00080014161206C002804BFA06C002804D084
:102AB0002068016821F0080101602068016821F0A8
:102AC000010101602068006810F0010F12D000F0D1
:102AD000F5FA401B052808D920206065032084F8FA
:102AE000350084F83460BDE8F0812068006810F09B
:102AF000010FECD194F85C003F2101FA00F0B860BE
:102B0000012084F8350084F834600020BDE8F081AD
:102B100090F83510022903D08021416501207047CB
:102B2000052180F835100068016821F0010101607D
:102B3000002070472DE9F8430446002700977348AA
:102B40004FF41651A56D0068B0FBF1F92E6894F8AA
:102B50005C00082101FA00F0304211D020680268C0
:102B600012F0040F0CD0026822F00402026094F804
:102B70005C0001FA00F0A860606D40F00100606543
:102B800094F85C004FF0010808FA00F0304209D0D8
:102B90002168496911F0800F04D0A860606D40F091
:102BA0000200606594F85C1004208840304209D02F
:102BB0002168096811F0020F04D0A860606D40F030
:102BC0000400606594F85C1010208840304220D0EA
:102BD0002168096811F0080F1BD0A86020680168FF
:102BE00011F4802F09D0006810F4002F02D0A16CDE
:102BF00079B10CE0216C51B90BE0016811F4807FD0
:102C000003D1016821F008010160216C09B120465F
:102C1000884794F85C102020884030424AD02168D0
:102C2000096811F0100F45D0A86094F83500052808
:102C30002068016809D011F4802F2BD0006810F4AF
:102C4000002F24D0E16B21B332E021F016010160A6
:102C50002068416921F080014161206C002804BF97
:102C6000A06C002804D02068016821F008010160F0
:102C700094F85C004FF03F0101FA00F0A86084F87E
:102C8000358084F83470216DD1BBBDE8F883616C68
:102C900071B90FE0016811F4807F07D1016821F05C
:102CA0001001016084F8358084F83470E16B09B15B
:102CB00020468847606D002808BFBDE8F883606D36
:102CC00010F0010F17D04FF0050084F83500206890
:102CD000016821F001010160009800F101000090FD
:102CE000484504D82068006810F0010FF4D184F83A
:102CF000358084F83470E16C002908BFBDE8F883A2
:102D0000204601B0BDE8F04308470000180000204D
:102D100070B5044600F0D2F90646002C04BF01202D
:102D200070BD022084F83500002584F834502068F6
:102D3000016821F0010101602068006810F0010FB6
:102D400010D000BF00F0BAF9801B052805D920205B
:102D50006065032084F8350070BD2068006810F0BD
:102D6000010FEFD1216808683D4A1040D4E90123E2
:102D70001A43D4E9033C43EA0C031A4363691A4338
:102D8000A3691A43E3691A43236A1A431043626A28
:102D9000042A03D1D4E90B231A4310430860D4F862
:102DA00000C0DCF81400012320F00701606A40EA4B
:102DB0000102042837D1A16AE06A0A4318B3A66960
:102DC00056B1B6F5005F14D000291CBF01290229B5
:102DD00021D003291CD026E019B1012905D00229F0
:102DE00021D110F0807F1ED015E0B0F1C07F1AD144
:102DF00011E081B1012907D002290CD0032908BFB5
:102E0000B0F1C07F07D00EE010F0807F03D10AE060
:102E100010F0807F07D04FF04000606584F83530B7
:102E20004FF0010070BDCCF8142020680D4AC1B2EB
:102E3000A1F11001A2FB01210B4A4FEA1111032954
:102E4000525CE2656FF3090088BF001D3F2191408D
:102E5000A0658160656584F83530002070BD000094
:102E60003F8010F0ABAAAAAAA4A4000870B504463B
:102E700000F024F90546B4F1FF3F02D00448007881
:102E8000044400F01BF9401BA042FAD370BD0000BF
:102E90000C0000207047000004490A68024208BF85
:102EA000704710B50860FFF7F5FF10BD143C0140F6
:102EB0002DE9F84F7B4D7A4C00224FF001094FF07D
:102EC000030C4FF00F0A05F1040E00BF0B6809FA5E
:102ED00002F63340B34240F0DC800F7907F003077D
:102EE000012F18BF022F19D1D0F808804FEA4207EE
:102EF0000CFA07FB28EA0B08D1F80CB00BFA07F71D
:102F000047EA08078760476827EA06060F79C7F38C
:102F1000001707FA02F747EA060646604E683CEAE1
:102F200006060BD0C76856000CFA06F827EA080711
:102F3000D1F8088008FA06F63E43C6600E7906F01E
:102F40000306022E11D1D60800EB8607D7F82080A1
:102F50005607F60E0AFA06FB28EA0B08D1F810B05D
:102F60000BFA06F646EA08063E62076856000CFAB7
:102F700006F827EA080791F8048008F0030808FA21
:102F800006F63E4306604E6816F4403F7DD0266844
:102F900046F480462660266806F48046009622F0B5
:102FA000030606F1804707F59837D7F80888960793
:102FB000360F0AFA06FB28EA0B08A0F1804BBBF596
:102FC000003B38D0A0F1804BBBF5013B08BF4FF070
:102FD000010B30D0A0F1804BBBF5023B08BF4FF096
:102FE000020B28D0A0F1804BBBF5033B08BF4FF08C
:102FF000030B20D0A0F1804BBBF5043B08BF4FF082
:10300000040B18D0A0F1804BBBF5053B08BF4FF077
:10301000050B10D0A0F1804BBBF5063B08BF4FF06D
:10302000060B08D0A0F1804BBBF5073B0CBF4FF05F
:10303000070B4FF0080B0BFA06F646EA0806C7F82E
:1030400008682E684F689E4317F4801F18BF1E4300
:103050002E60DEF800604F689E4317F4001F18BF13
:103060001E43CEF80060104F3E68D1F804809E43A6
:1030700018F4003F18BF1E433E600C4F3E68D1F865
:1030800004809E4318F4803F00E002E018BF1E4316
:103090003E60521C102AFFF419AFBDE8F88F000003
:1030A00044380240083C0140043C0140003C0140DF
:1030B000002A08BF09048161704700000148806848
:1030C000704700000C00002002488168027811441B
:1030D000816070470C0000200B4810B5016841F476
:1030E00000710160016841F480610160016841F490
:1030F00080710160032000F0B5F80F2000F006F8A1
:1031000000F050F8002010BD003C024030B50546EC
:10311000204887B00024016841F001010160006887
:1031200006A900F001000590684600F05BF90398DD
:10313000B0B100F077F9400017494FF08042B0FB82
:10314000F1F0411E1548026040F2E732C0E9032465
:10315000C0E90114846100F0B2FD040016D102E060
:1031600000F060F9E8E70D4800F0ECFD04000DD137
:103170001C2000F035F8102D28BF012406D20022B3
:1031800029461C2000F03CF80548056007B02046A1
:1031900030BD00004038024040420F00D00A0020FD
:1031A000100000200C4882B0016841F480410160A9
:1031B000006800F4804000900848016841F08051A8
:1031C00001600068002200F0805000900F21901EE6
:1031D00002B000F015B80000443802404038024008
:1031E0000028B8BF704700F01F01012202FA01F168
:1031F0004009800000F1E020C0F800117047000095
:10320000174B10B41B68C3F30223C3F1070CBCF1C6
:10321000040F88BF4FF0040C1C1D072C34BF002383
:10322000DB1E012404FA0CFCACF1010C0CEA0101D8
:10323000994004FA03F35B1E1A40114300284FEA39
:103240000111A1BF00F1E02080F8001410BC70470C
:1032500000F00F0000F1E02080F8141D10BC704752
:103260000CED00E0074900F007000A684FF6FF0385
:103270001A4042EA002040F0FD7040F08060086093
:10328000704700000CED00E0002804BF01207047EB
:103290002DE9F0474D4E04460F46306801F0FF0817
:1032A00000F00700B84206D286F80080306800F0CF
:1032B0000700B84261D12068454D10F0020F14D0CC
:1032C00010F0040F03D0286840F4E0502860207804
:1032D00010F0080F03D0286840F460402860286888
:1032E000A16820F0F00008432860207810F0010F5A
:1032F00037D060683749012823D0022818BF032837
:10330000096823D011F0020F37D0296821F003019A
:1033100041EA00002860FFF7D1FE81462868616815
:1033200000F00C00B0EB810F18BF41F2883A18D0C2
:10333000FFF7C4FEA0EB090050450BD90320BDE800
:10334000F087096811F4003FDFD116E011F0007F2B
:10335000DBD112E02868616800F00C00B0EB810F4F
:10336000E6D1306800F00700B84209D986F800803D
:10337000306800F00700B84202D00120BDE8F087B5
:10338000207810F0040F05D02868E16820F4E050A0
:1033900008432860207810F0080F06D028682169BB
:1033A00020F4604040EAC100286000F05BF8296822
:1033B000094AC1F30311515CC84008490860084834
:1033C0000068FFF7A3FE0020BDE8F087003C024044
:1033D0000838024000380240ACA400081800002061
:1033E000100000200F2202600C4A136803F0030350
:1033F0004360136803F0F0038360136803F4E05341
:10340000C36012684FF4E05303EAD2020261044839
:10341000006800F0070008607047000008380240AC
:10342000003C02400448054900680968044AC1F3A9
:103430008221515CC84070471800002008380240C3
:10344000BCA400080448054900680968044AC1F39F
:103450004231515CC84070471800002008380240D3
:10346000BCA400081848006810F00C02174808BFF8
:1034700070471749042A04BF08467047082A18BF36
:10348000704710B5134C2268236802F03F0213F412
:10349000800F08D020680023C0F38810A0FB010132
:1034A000FDF742FC07E021680023C1F38811A1FB6E
:1034B0000001FDF739FC2168C1F30141491C4900B5
:1034C000B0FBF1F010BD0000083802400024F40009
:1034D000001BB70004380240002804BF01207047D9
:1034E0002DE9F84F04460078DFF8CC8310F0010F87
:1034F000A8F1040558D008F10400016801F00C019E
:10350000042909D0006800F00C0008280DD1D8F873
:10351000000010F4800F08D0286810F4003F43D05A
:103520006068002800F0C1813EE06068B0F5803F2F
:1035300019D0B0F5A02F28680CBF40F4802020F4EB
:103540008030286028680CBF40F4803020F4802050
:1035500028606068B8B1FFF7B1FD0646286810F42E
:10356000003F05D020E0286840F480302860F0E774
:10357000FFF7A4FD801B642800F22F81286810F457
:10358000003FF5D010E0FFF799FD0646286810F4DB
:10359000003F09D0FFF792FD801B642800F21D81D7
:1035A000286810F4003FF5D12078C44F10F0020FC6
:1035B00047D0C349086810F00C0F16D0086800F017
:1035C0000C00082804BFD8F8000010F4800F0CD0BD
:1035D000E06820B34FF001003860FFF76FFD06464A
:1035E000286810F0020F09D011E0286810F0020FCF
:1035F0001CBFE06801280AD000F057B9FFF75EFD54
:10360000801B02287ED8286810F0020FF6D02868A8
:10361000216920F0F80040EAC100286011E0002094
:103620003860FFF74BFD0646286810F0020F08D0FF
:10363000FFF744FD801B022864D8286810F0020FB1
:10364000F6D1207810F0080F2AD09E489E4E61696E
:1036500099B101210160FFF731FD8146306810F01A
:10366000020F1DD1FFF72AFDA0EB0900022849D85F
:10367000306810F0020FF5D012E000210160FFF772
:103680001DFD8146306810F0020F09D0FFF716FDCE
:10369000A0EB0900022835D8306810F0020FF5D1F0
:1036A000207810F0040F7FD088484FF0000B00689E
:1036B00010F0805F0AD18548016841F080510160B7
:1036C00000684FF0010B00F080500090DFF800928E
:1036D000D9F8000010F4807F1AD1D9F8000040F426
:1036E0008070C9F80000FFF7E9FC0646D9F8000031
:1036F00010F4807F0CD100BFFFF7E0FC801B022894
:103700006BD800E069E0D9F8000010F4807FF3D0B6
:10371000A068704E01281BD0052830680CBF40F00F
:10372000040020F00100306030680CBF40F0010060
:1037300020F00400C6F80000A06841F2883AB8B151
:10374000FFF7BCFC8146306810F0020F05D021E085
:10375000306840F001003060EEE7FFF7AFFCA0EB0F
:103760000900504539D8306810F0020FF5D011E04B
:10377000FFF7A4FC8146306810F0020F0AD000BFAA
:10378000FFF79CFCA0EB0900504526D8306810F0EC
:10379000020FF5D1BBF1000F06D04C48016821F0B3
:1037A000805100E000E00160A069E8B34449096885
:1037B00001F00C01082950D002284FF000003866B3
:1037C0000ED0FFF77BFC0446286810F0007F6FD016
:1037D000FFF774FC001B02283AD90320BDE8F88FDC
:1037E000FFF76CFC0646286810F0007F09D000BF88
:1037F000FFF764FC801B0228EFD8286810F0007FD8
:10380000F6D1D4E907010843A16A334A490802EB1B
:103810000141626A41EA8211084394F82C1040EA9F
:103820000160C8F8000000E042E001203866FFF7C0
:1038300045FC0446286810F0007F39D1FFF73EFCB4
:10384000001B0228C9D8286810F0007FF6D02FE0AE
:10385000286810F0007FBBD12AE0012808BFBDE82E
:10386000F88FD8F80000E26900F4800191421CD181
:10387000226A00F03F01914217D147F6C071626A97
:103880000140B1EB821F10D1A26A4FF0FF3300F468
:10389000403103EB5202B1EB024F06D194F82C10E9
:1038A00000F07060B0EB016F02D00120BDE8F88F2E
:1038B0000020BDE8F88F00000438024000004742B5
:1038C00008380240800E47427438024040380240B7
:1038D00000700040703802400000FFFF002804BF65
:1038E0000120704770B50446406A002500281CBFBF
:1038F0002561656104D0A56294F8510058B905E0CE
:103900006068B0F5827F18BFE561F4E784F8505035
:10391000204600F045F8022084F851002068016834
:1039200021F040010160A088218900F4827001F437
:1039300004410843A18901F400610843217C01F09E
:1039400002010843217D01F001010843218B01F4AC
:1039500000710843217F01F03801084394F82010DA
:1039600001F080010843218D01F4005108432168D2
:103970000860A069042101EA104094F8241001F0C5
:1039800010010843216848602068C16921F4006182
:10399000C1616565012084F85100002070BD000000
:1039A0002DE9F04186B00025064600950195029567
:1039B000039504950068A0F18041B1F598311CBFD2
:1039C00006B0BDE8F0812F48016841F480510160E4
:1039D000006800F4805005902B48016841F0020116
:1039E0000160016801F002010591016841F00101E7
:1039F00001600068022400F0010005901820CDE964
:103A0000000403274FF00508CDE9037869461F48F5
:103A1000FFF74EFA80208DE8B10169461C48FFF798
:103A200047FA1D4C1B484FF0C0682060C4E901856F
:103A30000715C4E903576561A561E5612562204664
:103A40006562FFF765F9002818BFFEF7B1FBF46463
:103A5000A663134C1148C4E900084020C4E90205DC
:103A6000C4E90475A561E561256220466562FFF73A
:103A70004FF9002818BFFEF79BFBB464A66306B09D
:103A8000BDE8F08144380240303802400004024072
:103A900000000240106402402008002058640240E8
:103AA000800800202DE9F84F044690F850000126C8
:103AB0000A9F1D4692468B464FF00008012804BF1E
:103AC0000220BDE8F88F012084F85000FFF7F6FAD5
:103AD000814694F851006168012809D0B1F5827FD0
:103AE00003BFA168002904284FF0020840F0DA80E3
:103AF000BBF1000F1ABFBAF1000F002D4FF0010803
:103B000000F0D08094F8510004281CBF052084F8F0
:103B1000510000206065C4F838A0E587A587C4F887
:103B200030B0E586A586206460642068016811F0E5
:103B3000400F03D1016841F040010160E068B0F539
:103B4000006F606804D0002818BF012D58D099E09C
:103B5000002818BF012D41D1206B21680088C86062
:103B6000206B00F102002063E08EA0F10100E086EE
:103B700034E02068816811F0020F1CBFE18E00293B
:103B80000ED0012E0CD1216B0988C160206B00F191
:103B900002002063E08EA0F10100E0864FF00006F5
:103BA0002068816811F0010F1CBFE18F00290CD043
:103BB000C068A16B0880A06B00F10200A063E08FD9
:103BC000A0F10100E0874FF00106FFF777FAA0EBC4
:103BD0000900B84202D3B7F1FF3F5AD1E08E002866
:103BE00004BFE08F0028C4D14A463946204603F07E
:103BF00067FF002850D020204FF00108606551E099
:103C0000206B216800780873206B401C2063E08ED5
:103C1000401EE08636E02068816811F0020F1CBF6C
:103C2000E18E00290ED0012E0CD1216B0978017391
:103C3000206B00F101002063E08EA0F10100E0861E
:103C40004FF000062168886810F0010F1CBFE08F5C
:103C500000280CD0C868A16B0870A06B00F10100AF
:103C6000A063E08FA0F10100E0874FF00106FFF7AD
:103C700025FAA0EB0900B84203D3B7F1FF3F01D00A
:103C800007E037B1E08E002804BFE08F0028C2D1E2
:103C9000AAE74FF0030805E0A06818B92068C168DA
:103CA000806800904FF0010084F851004FF0000050
:103CB00084F850004046BDE8F88F704770470028F0
:103CC00004BF0120704710B5044690F83D0028B9A4
:103CD000002084F83C00204600F01EF8022084F802
:103CE0003D00211D206803F0F9FF012084F8460003
:103CF00084F83E0084F83F0084F8400084F84100D6
:103D000084F8420084F8430084F8440084F84500B5
:103D100084F83D00002010BD006881B0A0F1804112
:103D2000B1F5A2311CBF01B070470548016841F4EC
:103D300000310160006800F40030009001B070476D
:103D40004438024090F83D1001291CBF0120704703
:103D5000022180F83D100168CA6842F00102CA6081
:103D60000068A0F18041B1F5803118BFB0F1804FFB
:103D70001DD0A0F18041B1F580611CBFA0F1804150
:103D8000B1F5006113D0A0F18041B1F540611CBFD5
:103D9000A0F18041B1F5823109D0A0F18041B1F5A7
:103DA000A0311CBFA0F18041B1F5C05104D18168A0
:103DB00001F00701062903D0016841F0010101600B
:103DC00000207047704770B50446006801694FF0E5
:103DD000000511F0020F1CBFC16811F0020F13D0D3
:103DE0006FF002010161012020772068806910F0E6
:103DF000030F204602D0FFF7E5FF04E000F099F83A
:103E0000204600F0EBF925772068016911F0040FD6
:103E10001CBFC16811F0040F13D06FF004010161E1
:103E2000022020772068806910F4407F204602D06D
:103E3000FFF7C8FF04E000F07CF8204600F0CEF960
:103E400025772068016911F0080F1CBFC16811F0C7
:103E5000080F13D06FF0080101610420207720685B
:103E6000C06910F0030F204602D0FFF7ABFF04E05B
:103E700000F05FF8204600F0B1F92577206801696D
:103E800011F0100F1CBFC16811F0100F13D06FF0AC
:103E900010010161082020772068C06910F4407F7C
:103EA000204602D0FFF78EFF04E000F042F82046E3
:103EB00000F094F925772068016911F0010F1CBF0B
:103EC000C16811F0010F05D06FF0010101612046BA
:103ED00000F0F6F92068016911F0800F1CBFC1687D
:103EE00011F0800F05D06FF0800101612046FFF7CF
:103EF000E4FE2068016911F0400F1CBFC16811F099
:103F0000400F05D06FF040010161204600F0DFF95D
:103F10002068016911F0200F1ABFC16811F0200F4D
:103F200070BD6FF0200101612046BDE87040FFF7D1
:103F3000C5BE70472DE9F00190F83C300024012BFC
:103F400002BF0220BDE8F0017047012380F83C3039
:103F5000894BDFF828C27AB1042A50D0082A7DD0D4
:103F60000C2A18BF012400F0D380002180F83C10F7
:103F70002046BDE8F00170470268156A25F001058A
:103F80001562156A56689769D1F8008027F07307A3
:103F900048EA0707D1F8088025F0020548EA050538
:103FA0009A4218BF624507D1D1F80C8025F0080568
:103FB00048EA050525F004059A4218BF624509D173
:103FC000D1F814C026F440734CEA0303D1F818C0AA
:103FD0004CEA0306566097614B68536315620268AA
:103FE000936943F0080393610268936923F0040323
:103FF000936102689369096943EA010143E0026839
:10400000156A25F010051562156A56689769D1F88A
:10401000008027F4E64747EA0827D1F8088025F012
:10402000200545EA08159A4218BF624507D1D1F824
:104030000C8025F0800545EA081525F040059A42D8
:1040400018BF624509D1D1F814C026F4406343EA91
:104050008C03D1F818C043EA8C0600E015E05660E6
:1040600097614B68936315620268936943F4006338
:1040700093610268936923F4806393610268936992
:10408000096943EA012191616FE70268156A25F425
:1040900080751562156A5668D769D1F8008027F0D7
:1040A000730748EA0707D1F8088025F4007545EA48
:1040B00008259A4218BF624507D1D1F80C8025F433
:1040C000006545EA082525F480659A4218BF6245D7
:1040D00009D1D1F814C026F4405343EA0C13D1F8A7
:1040E00018C043EA0C165660D7614B68D36315625B
:1040F0000268D36943F00803D3610268D36923F0EF
:104100000403D3610268D369096943EA010131E01C
:104110000268156A25F480551562166A5568D769D4
:10412000D1F8008027F4E64747EA0827D1F808804D
:1041300026F4005646EA08369A4218BF624505D171
:10414000D1F814C025F4804343EA8C155560D7613B
:104150004B68136416620268D36943F40063D36149
:104160000268D36923F48063D3610268D369096963
:1041700043EA0121D161F8E600000140000401405A
:10418000002804BF0120704710B5044690F83D0098
:1041900028B9002084F83C00204600F01EF80220D8
:1041A00084F83D00211D206803F098FD012084F86B
:1041B000460084F83E0084F83F0084F8400084F80C
:1041C000410084F8420084F8430084F8440084F8F5
:1041D000450084F83D00002010BD70477047000086
:1041E000022361B104294BD0082951D090F8412015
:1041F000012A08BF80F8413008D00120704790F8AC
:104200003E20012A08BF80F83E30F6D101F01F039E
:10421000026801219940136A8B431362136A1943A0
:104220001162254A0168254B914218BF994205D178
:10423000D1F844C04CF4004CC1F844C0006890422E
:1042400018BFB0F1804F2BD0A0F18041B1F5806153
:104250001CBFA0F18041B1F5006121D0A0F18041E7
:10426000B1F5406118BF98421AD0A0F18041B1F574
:10427000A0311CBFA0F18041B1F5C05110D014E0B5
:1042800090F83F20012A08BF80F83F30B5D1BDE744
:1042900090F84020012A08BF80F84030ADD1B5E742
:1042A000816801F00701062903D0016841F001018E
:1042B0000160002070470000000001400004014040
:1042C0000068B0F1804F18BF7047FEF7FDBE704721
:1042D00070477047F8B5016804460868CA684B69BA
:1042E00010F00F0F4FF020064FF0000560D003F0E4
:1042F000010C02F490775CEA07077DD010F0010F03
:1043000018BF12F4807F03D0216C41F001012164B9
:1043100010F0040F18BF13F0010F03D0216C41F00F
:104320000201216410F0020F18BF13F0010F03D037
:10433000216C41F00401216410F0080F1CBF02F051
:10434000200151EA0C0103D0216C41F008012164E5
:10435000216C002908BFF8BD10F0200F1EBF12F01D
:10436000200F204603F0DAFE20684069216CC0F37C
:10437000801011F0080F08BF002858D0206800F105
:104380000C0151E8000F20F4907041E80002002A6F
:10439000F4D1206800F1140151E8000F20F0010071
:1043A00041E80002002AF4D1206B012816D10AE06E
:1043B00010F0200F18BF12F0200F3DD02046BDE8AE
:1043C000F84003F0ABBE206800F10C0151E8000F8B
:1043D00020F0100041E80002002AF4D184F83E6089
:1043E00025632068406910F0400F1CD0206800F160
:1043F000140151E8000F00E01EE020F0400041E809
:104400000002002AF2D1A06B68B172490165A06B6D
:10441000FEF77EFB002808BFF8BDA06B016D01B060
:10442000BDE8F04008472046FFF753FFF8BD20469F
:10443000FFF74FFF2564F8BD236B012B7ED110F0F1
:10444000100F18BF12F0100F7FD008684868009056
:10445000486910F0400F45D0A16B0868406800041F
:10446000000C1CBFA28D824298BFF8BDE085C869D0
:10447000B0F5807F2ED020680C3050E8001F21F46A
:10448000807140E80012002AF5D1206800F1140183
:1044900051E8000F20F0010041E80002002AF4D1A9
:1044A0002068143050E8001F21F0400140E800125D
:1044B000002AF5D184F83E60256320680C3050E86E
:1044C000001F21F0100140E80012002AF5D1A06B76
:1044D000FEF7CBFAA08DE18D401A81B22046FFF79E
:1044E000F7FEF8BDA08DE18D401A81B2E08D002865
:1044F00014BF0029F8BD206800F10C0050E8002F1F
:1045000022F4907240E80023002BF4D1206800F1DF
:10451000140252E8000F20F0010042E80003002BD3
:10452000F4D184F83E602563206800F10C0050E867
:10453000002F22F0100240E8002300E005E0002BED
:10454000F2D12046FFF7C4FEF8BD10F0800F18BF6F
:1045500012F0800F2DD094F83D00212818BFF8BD2F
:10456000A068B0F5805F04BF20690028206A18D0D9
:1045700000F101012162216800784860E08CA0F11F
:1045800001000004000CE08418BFF8BD2068C16879
:1045900021F08001C1602068C16841F04001C16024
:1045A000F8BD0088C0F308004860206A801C2062C3
:1045B000E4E710F0400F14BF12F0400FF8BD2046A2
:1045C000CA6822F04002CA6084F83D6000F0FFF83B
:1045D000F8BD00000D810008002804BF01207047CD
:1045E00070B5044690F83D00002520B984F83C5091
:1045F000204600F023F8242084F83D002068C1689C
:1046000021F40051C160204603F0EEFD20680169ED
:1046100021F4904101612068416921F02A01416142
:104620002068C16841F40051C1602564202084F8ED
:104630003D0084F83E00002070BD00002DE9F041EF
:1046400086B00024009401940294039404940646D6
:1046500001685348022203230715A1F1804CBCF5E1
:10466000904C5ED0A1F1804CBCF58A3C1CBF06B0DA
:10467000BDE8F0814B49D1F800C04CF0200CC1F8E6
:1046800000C0096801F020010591016841F0400176
:1046900001600068694600F0400005904FF48440D6
:1046A000CDE900020820CDE903303F48FEF700FCC9
:1046B0003F4D3E484FF020682860C5E90184C5E9B8
:1046C00003476C61AC61EC612C6228466C62FEF7BA
:1046D0001FFB002818BFFDF76BFDB563AE63364DB9
:1046E0003448C5E900084020C5E90204C5E904745E
:1046F000AC61EC612C6228466C62FEF709FB002875
:1047000018BFFDF755FD7563002205214720AE63F4
:10471000FEF776FD5FF04700FEF762FD06B0BDE8EC
:10472000F0812649D1F800C04CF4802CC1F800C0BB
:10473000096801F480210591016841F004010160DC
:104740000068694600F0040005904FF44060CDE930
:1047500000020720CDE903301948FEF7A9FB1A4DE6
:10476000184828604FF00060C5E90104C5E9034717
:10477000C0146C61C5E906404FF44030C5E9080437
:104780002846FEF7C5FA002818BFFDF711FDB563EE
:10479000002205212720AE63FEF732FD2720BBE76C
:1047A0003038024044380240001802402864024079
:1047B000100A0020A0640240700A00204038024025
:1047C0000008024028600240B0090020704770478E
:1047D000FEE7000070B52E4C01252DED028B002068
:1047E000257084ED6C0AC4ED6D0A9FED2A0A84EDF4
:1047F0006E1A84ED710A84F83801C4E95000C4E9E6
:10480000520011EE900AB7EE008AB0F17E5F3BDCF9
:10481000C4ED721A84ED642A032300220621201DB0
:1048200001F02CF9D4F8EC009FED1B0A902280EDEA
:10483000008AD4F8EC001D4980ED010AD4F8EC00A0
:1048400080ED020AD4F8EC0080ED030A1348C4F8A6
:10485000D0001348C4F8D4001248C4F8D800124855
:10486000C4F8DC0084F82E5084F82F50D4F80401EA
:10487000FCF7BCFAD4F8FC009022BDEC028B0C498A
:10488000BDE87040FCF7B2BAF0EE481AC0E700008D
:10489000304F0020CDCCCC3D00000000B5480008D2
:1048A000314E0008ED480008C94F000848A500082F
:1048B0007004002010B50446D0F8F8109022084883
:1048C000FCF794FA48220748D4F81C11FCF78EFA3A
:1048D000D4F80C11BDE8104048220348FCF786BA12
:1048E00070040020085100205051002070B504468B
:1048F000D0F8EC00B0EE000A314DD0ED000A60EEC9
:10490000800AC5ED090AD0ED010A60EE800AC5ED06
:104910000A0AD0ED020A60EE800AC5ED0B0AD0ED5E
:10492000030A20EE800A85ED0C0AA07B217B10FB98
:1049300001F0244909884143D4F80C01FCF76FFACF
:1049400095ED0B2AD4F80C01F1EE421AC0ED001AD5
:10495000D4F80C01D5ED0C0AC0ED010A95ED090A59
:10496000D4F80C01B1EE401A80ED021AD4F80C0113
:1049700095ED0A1A80ED031AD4F80C0180ED061AA1
:10498000D4F80C0180ED070AD4F80C01C0ED080A38
:10499000D4F80C0180ED092AD4F80C0180ED0C0A42
:1049A000D4F80C01B1EE410A80ED0D0AD4F80C01E7
:1049B000C0ED0E1AD4F80C01C0ED0F0A70BD000056
:1049C0002C0400202804002070B52DED088BB0EEDB
:1049D000439AF0EE629AB0EE42AAF0EE61AAB0EE0F
:1049E000418AB0EE60BAF0EE40BAFE4C2078DFEDBE
:1049F000FE8A58B9B0EE682AF7EE001A9FEDFB1A4E
:104A0000DFEDFB0AB2EE040AFFF7E4FED4E952013F
:104A1000084305D1C4ED5EAA84ED5FAAC4ED609A97
:104A200084ED6F9A94ED580AF24D90227BEEC00A05
:104A3000F149C4ED5B0A94ED590A3BEE400A84ED5E
:104A40005C0A94ED5A1A38EE411AB6EE008A60EE0E
:104A5000880A20EE080A84ED5D1A60EE890A20EECD
:104A6000090AC5ED000A85ED010A21EE080A20EECB
:104A7000090A85ED020AD4F80401FCF7B7F995EDAF
:104A8000000AD4F80401DD49F1EE401AC0ED011A24
:104A9000D5ED010AD4F80401B1EE602A80ED022AB6
:104AA00095ED021AD4F80401F1EE412AC0ED032A73
:104AB000D4F8040180ED060AD4F8040180ED081A48
:104AC000D4F8040180ED092AD4F80401C0ED0C0AE1
:104AD000D4F80401C0ED0D2AD4F8040180ED0F0ACA
:104AE000D4F8040180ED121AD4F80401C0ED130AC1
:104AF000D4F80401C0ED141A94ED5E0A94ED641A22
:104B0000D4ED6F0A20EE012A30EE810AC2EE001ABF
:104B100020EEAA2AC2EE002A71EEA21AC4ED5E1A95
:104B200094ED5F2A62EE012A82EE802A60EE8A2AE4
:104B300060EEA90A82EE803A32EE032A84ED5F2A03
:104B4000D4ED602A62EE812A82EE801AC0EE802ABD
:104B500021EEA10A02EE020A71EE220AB7EE081A4D
:104B6000C4ED600A00EEA00A10EE100A60EE080A1A
:104B7000A1EB600000EE100A20EE802AF0EE410A60
:104B800042EE400A60EE800AC5ED030A21EEA00A5B
:104B9000A06880ED000A94ED5F0AA06820EE200A6C
:104BA00080ED010A94ED600AA06820EE200A80EDF5
:104BB000020A94ED5B0AD4ED5C1A20EE000A01EEC5
:104BC000A10AD4ED5D1A01EEA10A10EE100A60EE02
:104BD000081AB7EE008AA1EB600000EE100A8849BF
:104BE00061EE801A01EEC01A21EE000A88EE001A6A
:104BF00088EE200A11EE100A84ED651A884284EDD1
:104C0000660A0BDA10EE100A7E49814206DA10EECF
:104C1000100A7D498842B8BF012000DB002084F8DB
:104C2000390194ED6C0AD4ED6F0AD4F8180120EE26
:104C3000200A80ED000A94ED6C0AD4ED6F0AD4F8D6
:104C4000180120EE200A80ED070A94ED6C0AD4EDDD
:104C50006F0AD4F8180120EE200A80ED0E0A94EDB8
:104C60006C0AD4ED6F0AD4F8180120EE200A80ED0A
:104C7000150A94ED6D0AD4ED6F0AD4F8180120EEF0
:104C8000200A80ED1C0A94ED6D0AD4ED6F0AD4F869
:104C9000180120EE200A80ED230AD4F81C0194EDBF
:104CA0006E0A80ED000AD4F81C0194ED6E0A80EDC6
:104CB000040AD4F81C0194ED6E0A80ED080A201D48
:104CC00001F090F9606890ED001A84ED541A90EDAF
:104CD000010A61EE012A84ED550AD0ED021AC4EDF5
:104CE000561A90ED032A40EE002A84ED572AD0EDA3
:104CF000040A21EE021AC4ED580AD0ED050AC4EDEB
:104D0000590A00EE211AC4ED5A8AF0EE008AF0EE3C
:104D1000480A52EEA80A21EE280A03F023FC9FED70
:104D20003B9AF0EE480A20EE090A84ED6A0A94EDF7
:104D3000541A94ED570A61EE011A40EE001A51EE32
:104D4000A80AD4ED551A21EE211AD4ED561A01EE17
:104D5000801A21EE280A03F005FC20EE090A84EDF2
:104D6000690A94ED550AD4ED570A94ED561A20EECF
:104D7000200AD4ED540A00EEC10AF8EE000A20EE33
:104D8000200A03F059FB20EE090A214984ED680A44
:104D900094ED6A0AD4ED740A70EE600A10EE900A7F
:104DA0008842C4BFB4F8CC01401E08DC10EE900A63
:104DB0001849884284BFB4F8CC01401C01D9A4F83A
:104DC000CC01B4F9CC01DFED141A00EE900AB8EE74
:104DD000E01AF0EE400A41EE210AC4ED6B0A84EDC0
:104DE000740A1BE0304F0020000000008096184B32
:104DF0006F12833A2C04002048A50008865A375FBA
:104E00009A99993ECDCC1441CDCC2441E12E6542F6
:104E100000003443000034C30000B443D4E952011D
:104E2000401C41F10001C4E95201BDEC088B70BD8A
:104E3000D0F8EC20F6EE002A5F4BD2ED001A92ED8E
:104E4000011AD2ED020A21EEA10A92ED032A01EE27
:104E5000010A00EEA00A02EE020A10EE101A20EE7D
:104E6000223AA3EB610100EE101A63EE003AB7EEAE
:104E7000083A03EEC03A23EE000A21EE803A82EDB2
:104E8000003AD0F8EC1091ED013A23EE003A81EDB2
:104E9000013AD0F8EC1091ED023A23EE003A81EDA0
:104EA000023AD0F8EC1091ED033A23EE000A81EDBE
:104EB000030AD0F8F820414992ED1C0A91ED723AAC
:104EC000C0EE033AC2ED1C3AD0F8F82091ED723AE8
:104ED00092ED230AC0EE033A9FED3A3AC2ED233A2F
:104EE000D0F8F830364A93ED1C0A10EE10CA9445FB
:104EF000C8BFB0EE430A83ED1C0AD0F8F8C09CEDA1
:104F0000230A10EE103A9342C8BFB0EE430A8CED6C
:104F1000230A91ED6F0AD0F8002120EE010A20EE5D
:104F2000220A82ED040A91ED6F0AD0F8002120EEEA
:104F3000200A20EE220A82ED050A91ED6F0AD0F8D0
:104F4000002120EE213ABEEE000A23EE003A82ED67
:104F50000A3A91ED6F3AD0F8002123EE023A23EE9F
:104F6000223A82ED0B3A91ED6F3AD0F8002123EE10
:104F7000022A22EE002A82ED102A91ED6F2AD0F843
:104F8000002162EE211A61EE801AC2ED111AD1EDF4
:104F90006F1AD0F8002161EEA00A60EEA20AC2EDFD
:104FA000160AD1ED6F0AD0F8000160EE810A20EEFA
:104FB000800A80ED170A7047865A375F304F00200D
:104FC00000401C4600401C4670B5044600F18001BC
:104FD0007830FBF71FFE84F8C800B4F87800A4F816
:104FE000A800B4F85A00A4F8AA0004F1A80204F139
:104FF000580104F17800FBF7EBFC84F8C800B4F822
:10500000A800A4F8B000B4F88200A4F8B20004F13B
:10501000B00204F1800104F1A800FBF7D9FC84F888
:10502000C800B4F89000A4F8A000B4F89200A4F866
:10503000A20004F1A00204F1900104F1B000FBF71A
:10504000A7F984F8C80004F1B00104F1A000FBF74F
:1050500027FA84F8C800D4F8EC00FF490126D0ED07
:10506000000AB0EE002AC1ED0D0AD0ED011AC1ED23
:105070000E1A90ED021A81ED0F1A90ED030A81EDE0
:10508000100A61EE802AB4F87800A4F8B800A4F8F9
:10509000BA6040EEC12AD4F82C0162EE822AC0ED3B
:1050A000002A60EEA12A60EEA00AD4F82C0141EE9D
:1050B000002A41EEE10A22EE822A41EE410A80ED09
:1050C000012AD4F82C0140EE000AC0ED020AD4F8FF
:1050D0002C0190ED000AB0EEC00A03F021F9DF4D7B
:1050E00085ED610AD4F82C0190ED010AB0EEC00AFA
:1050F00003F016F985ED620AD4F82C0190ED020A4E
:10510000B0EEC00A03F00CF985ED630AB4F848006C
:10511000A4F8C000A4F8C26004F1C00204F1B80110
:1051200004F14800FBF7F2FC84F8C800B4F8C000B2
:10513000A4F8A800A4F8AA6004F1A80204F1C00130
:1051400004F1B000FBF744FC84F8C800A4F8B86090
:10515000B4F8C000A4F8BA0004F1B80104F1C0002A
:10516000FBF758FD84F8C800A4F8A860A4F8AA606A
:1051700004F1A80204F1C00104F1B800FBF728FC17
:1051800084F8C800D4F8AC00B6EE001A90ED000A1E
:1051900085ED700AD5ED710A20EE811AB4EEC10AD0
:1051A000F1EE10FA38BF85F838610020B4EEE00A5D
:1051B000F1EE10FA2FDD95F8381161B395F8391139
:1051C000002908BF002204D0D5E95012491C42F141
:1051D0000002C5E950124FF0000CD1F132017CEB16
:1051E000020138BF85F8380133D39D4D207B2988D3
:1051F00000FB01F2D4E93A01FBF7F8FD207B10FB3C
:1052000000F0298800FB01F2D4E93E01FBF7EEFD36
:1052100084F82C6070BD9FED931A20EE811AB4EED5
:10522000C10AF1EE10FA0DDD95F8381151B130EEEA
:10523000C00A9FED8D1A60EE810A80EE201A85ED7E
:10524000671A03E0B7EE000A85ED670A0021C5E999
:10525000501184F82C00B4F85800A4F8A800B4F851
:105260008200A4F8AA0004F1A80204F1800104F16C
:105270005800FBF7ADFB84F8C80004F1980204F174
:10528000B00104F1A800FBF7A3FB84F8C800B4F850
:105290009800B4F89A1041430029C4BF0020C9B255
:1052A00011DD00BFD4F81C21D5ED670A02EB8002A6
:1052B000401C92ED000A491E11F0FF0120EE200A69
:1052C00082ED000AEED195ED611A9FED680AD4F8DF
:1052D0001C0104F1B802C1EE000A90ED0C1A04F1B1
:1052E000C00160EE810AC0ED0C0A95ED611AD4F898
:1052F0001C01C1EE000A90ED0D1A60EE810AC0EDAE
:105300000D0A95ED611AD4F81C01C1EE000A90ED6A
:105310000E1A60EE810AC0ED0E0A95ED621AD4F8FD
:105320001C01C1EE000A90ED0F1A60EE810AC0ED7B
:105330000F0A95ED621AD4F81C01C1EE000A90ED37
:10534000101A60EE810AC0ED100AD5ED620AD4F899
:105350001C0180EE801A90ED110A21EE000A80ED0A
:10536000110AB4F89800A4F8B800A4F8BA6004F1DF
:105370009800FBF72DFB84F8C80095F83801002849
:1053800063D095ED6F0A9FED3A1AD4F8BC0020EE79
:10539000010AD0ED040AF4EEC00AF1EE10FAD8BF0B
:1053A000B0EE600A80ED040AD5ED6F0ADFED311A28
:1053B000D4F8BC0060EEA10AB4EEE00AF1EE10FAF7
:1053C000D8BFB0EE600A80ED040AD5ED6F0AD4F8BC
:1053D000BC0060EE810A90ED050AB4EEE00AF1EE41
:1053E00010FAC8BFB0EE600A80ED050AD5ED6F0A6D
:1053F000D4F8BC0060EEA10AB4EEE00AF1EE10FAB7
:10540000D8BFB0EE600A80ED050A95ED6F0AD4F8BA
:10541000BC0020EE010AD0ED060AF4EEC00AF1EE5F
:1054200010FAD8BFB0EE600A80ED060AD5ED6F0A1B
:10543000D4F8BC0060EEA10AB4EEE00AF1EE10FA76
:10544000D8BFB0EE600A80ED060AD4F8BC009FED2C
:105450000A0A80ED030A11E02C040020304F0020DE
:1054600028040020CDCCCC3D6666663FDA0FC93FEC
:105470000AD7233C0AD723BC0000000004F1300205
:1054800004F1B80104F13800FAF782FF84F8C8008B
:1054900070BD00002DED108BB7EE000AFD48FE4DEB
:1054A00090ED09AAD0ED0AAA90ED0BBA85ED010A9C
:1054B00085ED020A85ED030ADFEDF8BA0120C5ED9E
:1054C00004BAC5ED05BAC5ED06BA2870B0EE6B2A70
:1054D000F7EE001A9FEDF21ADFEDF20AB2EE040ABF
:1054E000FFF778F900221146F0EE6B4AB0EE6B4AF6
:1054F000F0EE6B3AB0EE6B3AF0EE6B2AB3EE042AA4
:10550000DFEDE91AB0EE6B1ADFEDE80A9FEDE80A6D
:10551000A5F5987001F050FF0021E648FEF760FE07
:105520009FEDE50AA5F18408E44888ED100AFCF730
:10553000E7FCE24CDFF888A384ED010ADFEDE19A95
:10554000DFEDE1CA9FEDE1DADFEDE1DADFF884B308
:10555000DFF88493B6EE008AB0EE00CA9FEDDFEA72
:10556000D648FCF7CDFC84ED010AD4ED020ADA48F6
:1055700030EE800A84ED020AFBF7ACFF99ED0C0ACD
:1055800008F1100788ED200A99ED000A08F11C06C1
:1055900088ED070A99ED010A88ED080A99ED020ADB
:1055A00088ED090A99ED030A88ED040A99ED040AC9
:1055B00088ED050A99ED050A88ED060AD5ED040A7D
:1055C00094ED050A30EEC00AB0EEC00A10EE100AE3
:1055D00050451ADC95ED050A94ED061A30EE410AA5
:1055E000B0EEC00A10EE100A50450EDC95ED060A2A
:1055F00094ED071A30EE410AB0EEC00A10EE100A20
:105600005045DCBF287800285FD080EEA90AFAF761
:1056100039FED5ED050AF0EE40FA80EEA90AFAF758
:1056200031FED5ED060AB0EE40FA80EEA90AFAF78F
:1056300029FED5ED040AF0EE40EA80EEA90AFAF759
:105640005DFED5ED050AB0EE409A80EEA90AFAF7A4
:1056500055FED5ED060AF0EE408A80EEA90AFAF76B
:105660004DFE6FEEAE0A69EE281A0020B0EE601A09
:1056700001EE801A6EEE891A84ED081A2FEE091ACF
:1056800084ED091A2FEE801A01EEE81A84ED0A1A49
:105690002FEEA81A21EE001A0EEEC91A84ED0B1A8D
:1056A0002FEE8F1A84ED0C1A29EE401A2FEE400AC5
:1056B00000EEE81A84ED0D1A84ED0E0A2FEE2E0A84
:1056C000C4ED0F8A84ED100A287097ED000AD5ED1D
:1056D000010A95ED021AD5ED031A60EE200A97ED46
:1056E000010A94ED084AD4ED093A20EE010A97ED3B
:1056F000021A94ED0A3A21EE211A60EE841A43EE62
:10570000801A43EE011AC7ED001AD4ED0B2A94ED6E
:105710000C2AD4ED0D1A60EEA24A42EE004A41EE88
:10572000814AC7ED014AD4ED0E4A94ED0F5AD4EDEB
:10573000105A60EEA40A45EE000A45EE810AC7ED54
:10574000020AD6ED000A96ED011A96ED020A20EE45
:10575000844A60EEA22A60EEA40A03EE814A42EE79
:10576000012A45EE010A03EE004A41EE802A45EE89
:10577000800A86ED004AC6ED012AC6ED020A95EDC3
:10578000040A84ED050A95ED050A84ED060A95EDF7
:10579000060A84ED070A98ED070A02F0E3FE20EE00
:1057A0002C0AC0EE0D0AC8ED1A0AD8ED090A98EDC8
:1057B000080A02F0D7FE20EE2C0A08F11000C0EE15
:1057C0002D0AC8ED1B0A94ED013A90EC060AFFF78A
:1057D000FBF80BF5A871424891E80E1080E80E1016
:1057E000024608F144012B48FBF7BEFF3C4A08F192
:1057F00050013C48FBF7B8FF394A08F15C013A48D0
:10580000FBF7B2FF98ED021AF0EE480A98ED030A92
:1058100041EE410AD8ED001A40EE400A20EE8A3AE5
:10582000D8ED010A20EE812AF0EE422A01EEC02ACC
:1058300041EE802A02EEAA3A60EE802AF0EE623A49
:1058400041EE812A41EEC13A62EE8A2A03EE8B3A9A
:1058500063EE0C3A22EE0A3AB0EE482A00EEE02A55
:10586000B0EE424A01EE412A00EE404A21EE000A23
:1058700004EE2A3AB0EE404A01EEE00A01EEA04AF8
:1058800040EE2A2A04EE0B3A42EE0B2A23EE0C3AA3
:105890002CE0000018A50008C04D0020000000000A
:1058A0008096184B6F12833A00007A4400009643AA
:1058B0000000FA44E008002096430B3C2001002041
:1058C0006F12833AE12E654200003443DB0F49C07A
:1058D000DB0F4940304F0020FC4E00200000804F7D
:1058E0003C4D002024A5000830A5000898ED070ACB
:1058F00094ED011AD8ED100A30EE630A62EE8C1AAC
:105900003A4A08F1340160EE012A30EE810A08F1CA
:10591000280082EE802AD8ED0A2A62EEA02AC2EE82
:10592000803A32EE232A88ED0A2A98ED082A32EED0
:10593000432A62EE012A82EE802AD8ED0B2A62EE1B
:10594000A02A82EE803A32EE032A88ED0B2A98EDE7
:10595000092A72EE611A61EE811A81EE801AD8ED81
:105960000C1A61EEA00AC0EE801A31EE210A88ED11
:105970000C0AFBF7F9FE9BED6A0A88ED1E0A9BED07
:10598000690A88ED1D0A9BED680A88ED1C0A9BEDEB
:105990006B0A88ED1F0A207C10F0010F1ED199EDD3
:1059A000070AD4ED030A124801F0ACF9104890ED53
:1059B0000D0A03F0E1FB00EE100AB0EE4E1AF0EE15
:1059C0006B0AB8EEC00A03F06BFBBCEEC00A002104
:1059D00010EE100A82B2074802F0E6F92069401C76
:1059E0002061012003F097FDBAE500003C4D002046
:1059F000904C0020E0080020F0B595B004F094F839
:105A0000FBF72EFFFBF74EFFFCF73CFB174D95E82D
:105A10005F108DE85F100021684603F089FD144C8B
:105A20001C350DF11C0E206095E8CF108EE8CF10CC
:105A3000002107A81C3D03F07BFD3835606095E828
:105A40006F100EAF87E86F1000210EA803F070FDF5
:105A5000E0600848006804F071F90748006804F045
:105A60006DF904F081F815B0F0BD0000C4A4000881
:105A7000D000002004000020000000202DE9F047A5
:105A8000EC4E04460420308008207080217362733D
:105A90001F46A3734FF0000990460D4684F81090FE
:105AA000384603F031FC39466061FBF7B8F93088BD
:105AB000784303F029FCA06131887943FBF7AFF903
:105AC0003088784303F020FCE06131887943FBF7AC
:105AD000A6F93088684303F017FC206231886943D7
