:020000040800F2
:1000000088BD00203103000893730008FD530008E9
:100010009173000837180008E5AA000800000000E6
:100020000000000000000000000000007102000855
:100030002521000800000000CD020008E988000822
:100040004B0300084B0300084B0300084B03000858
:100050004B0300084B0300084B0300084B03000848
:100060004B0300084B0300084D2100084B03000818
:10007000AD1E00084B0300084B0300084B030008AB
:100080004B0300084B0300084B0300084B03000818
:10009000391800084B0300084B03000853210008DF
:1000A0004B030008B98900084B0300084B03000804
:1000B000D58900084B0300084B0300084B030008D8
:1000C0004B0300084B0300084B0300084B030008D8
:1000D0004B0300084B0300084B030008098F00087E
:1000E0004B0300084B0300084B0300084B030008B8
:1000F0004B0300084B0300084B0300084B030008A8
:100100004B0300084B0300084B0300084B03000897
:100110004B0300084B0300084B0300084B03000887
:10012000B91E0008C51E00084B030008D11E0008B8
:100130004B0300084B0300084B0300084B03000867
:100140007D1800084B0300084B030008CD7500081C
:100150004B030008DD1E00084B0300081D8F00083C
:100160004B0300084B0300084B0300084B03000837
:100170004B0300084B0300084B030008000000007D
:100180004B0300084B03000800F002F800F060F891
:100190000AA090E8000C82448344AAF10107DA45E2
:1001A00001D100F055F8AFF2090EBAE80F0013F0D4
:1001B000010F18BFFB1A43F0010318470CF50000AC
:1001C0002CF500000A444FF0000C10F8013B13F02E
:1001D000070408BF10F8014B1D1108BF10F8015BA0
:1001E000641E05D010F8016B641E01F8016BF9D193
:1001F00013F0080F1EBF10F8014BAD1C0C1B09D1EA
:100200006D1E58BF01F801CBFAD505E014F8016B5B
:1002100001F8016B6D1EF9D59142D6D370470000ED
:100220000023002400250026103A28BF78C1FBD8FF
:10023000520728BF30C148BF0B6070471FB50EF092
:10024000E9FB9DE8030000F091FF1FBD10B510BD54
:1002500001F010F81146FFF7F1FF0CF011FB01F06F
:100260002EF803B4FFF7F2FF03BC01F065F80000BD
:100270002C4B19680868B0E8F04F80F30988BFF389
:100280006F8F4FF0000080F311887047000000006E
:1002900008480068006880F308884FF0000080F389
:1002A000148862B661B6BFF34F8FBFF36F8F00DF64
:1002B00000BF00BF08ED00E0DFF80C00016841F46A
:1002C00070010160704700BF88ED00E0EFF3098026
:1002D000BFF36F8F134B1A681EF0100F08BF20ED8D
:1002E000108A20E9F04F106009B44FF0500080F3FD
:1002F0001188BFF34F8FBFF36F8F0CF0F3FF4FF0F8
:10030000000080F3118809BC19680868B0E8F04F54
:100310001EF0100F08BFB0EC108A80F30988BFF3FD
:100320006F8F704780000020EFF30580704700005A
:100330000948804709480047FEE7FEE7FEE7FEE779
:10034000FEE7FEE7FEE7FEE7FEE7FEE704480549B5
:10035000054A064B70470000A9890008890100087A
:10036000887D002088BD0020889D0020889D002079
:100370009FED1A1AF5EE000A40EE010ABDEEE00A02
:10038000F5EEC00A10EE100AF1EE10FA38BF401E6A
:1003900000EE100A1349F7EE001AB8EEC00A30EE6C
:1003A000C00ADFED0F0A20EE200AFCEEC00A10EEB4
:1003B000900AC0F3080000EE900A01EB8000F8EE0E
:1003C000600A90ED011A70EE600A90ED000A71EE7D
:1003D000E01A21EE800A00EE810A704783F9223E7E
:1003E000000000446CEE0008B5EEC00AF1EE10FA11
:1003F00007D2DFED1E0AB4EEE00AF1EE10FAA8BF54
:100400007047DFED1B0AB5EEC00A60EE200ABDEEB4
:10041000E01A11EE100AF1EE10FA38BF401E00EE9D
:10042000100A1549F7EE001AB8EEC00A30EEC00AFD
:10043000DFED100A60EE200ABCEEE00A10EE100AB2
:10044000C0F3080000EE100A01EB8000B8EE400A8D
:1004500090ED011A70EEC00A90ED000A71EEE01AFC
:1004600021EE800A00EE810A70470000CD024CB4F4
:1004700083F9223E000000446CEE000870B4058849
:100480000E884468D1F804C05368B54208D140884A
:100490004988884201BF11888D425188884203D023
:1004A00070BC6FF00200704705FB00F1880827D090
:1004B00094ED001ADCED000A94ED010ADCED011A5E
:1004C00031EE201AD4ED020A70EE211A9CED020AD8
:1004D00083ED001AC3ED011A94ED031ADCED031A43
:1004E00030EE800A401E71EE210A83ED020A04F10B
:1004F0001004C3ED030A03F110030CF1100CD7D163
:1005000011F0030030D0B0F1004F30D200282BDDC5
:10051000211F1B1FACF1040210F0010F0AD091ED56
:10052000010AD2ED010A091D121D30EE200A83EDE9
:10053000010A1B1D400817D091ED010AD2ED010AF6
:10054000401E30EE200A83ED010A91ED020AD2ED41
:10055000020A01F1080102F1080230EE200A83EDDF
:10056000020A03F10803E7D170BC00207047B4EC25
:10057000010A401EFCEC010A30EE200AA3EC010A3D
:10058000F5D1F1E701804280436070472DE9F34FD8
:1005900084B0049840680090486801900498B0F8CE
:1005A00000E04588DFEDFE0A00200290B0EE600A10
:1005B000AE4506D108884988884204BF7146864501
:1005C00004D06FF0020006B0BDE8F08F01985FEA3A
:1005D000010C18BFB7EE001A3DD000BFBEEB0C01F6
:1005E00017D0B1F1004F80F01F82002911DD021FEA
:1005F00011F0010F1CBFC2ED010A121D4B1006D0F5
:10060000C2ED010AC2ED020A08325B1EF8D100EB0E
:100610008100BCF10102A0EC011A19D0B2F1004F27
:1006200080F00882002A13DD031F12F0010F1CBFA7
:10063000C3ED010A1B1D511008D000BFC3ED010A14
:10064000C3ED020A491E03F10803F7D100EB820053
:10065000BCF1010CC2D14FF000080395002D14BF6E
:10066000B0EE602A002000F0BF8100BF009908FBB7
:1006700005F001EB800B0199DBED002A01EB800016
:100680000346F0EE421AC64552D9AEEB0802ABEB78
:10069000850112F0010F17D001EB850191ED000AE1
:1006A000B5EEC00AF1EE10FA07DDB4EEE10AF1EEA4
:1006B00010FA09DDF0EE401A06E0B1EE400AF4EE61
:1006C000C01AF1EE10FAF5D3521031D001EB850CBF
:1006D0009CED000AB5EEC00AF1EE10FA05DDB4EEAD
:1006E000E10AF1EE10FA09DD06E0B1EE400AF4EE9F
:1006F000C01AF1EE10FA01D2F0EE401A01EBC5017A
:1007000091ED000AB5EEC00AF1EE10FA05DDB4EE87
:10071000E10AF1EE10FA09DD06E0B1EE400AF4EE6E
:10072000C01AF1EE10FA01D2F0EE401A521ECDD1ED
:10073000F5EEC01AF1EE10FA00F07381F5EEC02A62
:100740000126F1EE10FA0099D4BFB1EE620AB0EEC4
:10075000620AB4EE610AF1EE10FA1CBFAEEB0802B9
:10076000B2F1010C47D005FB08F201EB820292EDD9
:10077000001A00BFB0EE410A05FB06F4B5EEC00A50
:1007800000EB8404F1EE10FACCBFF0EE400AF1EE7B
:10079000400AF4EE610AF1EE10FA28D1B5EB080C2C
:1007A00011D0BCF1004F7DD2BCF1000F0BDD00BFBA
:1007B00092ED000AD1ED000ABCF1010CE2EC010A55
:1007C000A1EC010AF4D129000ED0B1F1004F6AD298
:1007D000002909DD94ED000AD0ED000A491EE4EC81
:1007E000010AA0EC010AF5D1012002900BE0761C71
:1007F000BCF1010CBED10298012804D0F5EEC02A4C
:10080000F1EE10FA7ED09BED000AB5EB08009A4697
:100810005946064622D0B0F1004F74D200281DDDA3
:10082000091F10F0010F06D0F0EE400A80EEA01A6A
:1008300081ED011A091D401010D000BFD1ED010A51
:10084000401E80EE801A81ED011A91ED021AC1EE70
:10085000000AC1ED020A01F10801EFD1280026D0FB
:10086000B0F1004F7ED2002821DDAAF1040110F082
:10087000010F06D0D1ED010A80EE801A81ED011A38
:10088000091D401013D000BFD1ED010A401E80EEBB
:10089000801A81ED011AD1ED020A80EE801A81EDF5
:1008A000021A01E0CBE0D6E001F10801ECD1DDE96C
:1008B00000124FF000095FEA0E0773D0C14504BF74
:1008C00001EB860102EB850274D091ED000ADC4653
:1008D0005046331E35D01C46B6F1004F7ED2002C58
:1008E0002FDD0B1FABF1040C16F0010F0FD0F0EE53
:1008F000400ADCED011AB0EE601A00EEE11A83ED59
:10090000011A01E08DE0B1E01B1D0CF1040C741024
:1009100015D000BFD3ED010A9CED011A40EE410A4B
:10092000C3ED010AD3ED020A9CED021A0CF1080C8A
:1009300040EE410AC3ED020A0833641EEAD101EB1E
:1009400086012B0036D0B3F1004F72D2002B31DD7F
:10095000A2F1040CAAF1040013F0010F0CD0DCED9D
:10096000010A00E08BE090ED011A001D40EE410A03
:10097000CCED010A0CF1040C5C1019D0DCED010A7D
:1009800090ED011A40EE410ACCED010ADCED020ABD
:1009900090ED021A083040EE410ACCED020A03E065
:1009A000000000000DE005E0641E0CF1080CE5D12C
:1009B00002EB830201EB88017F1E09F101097FF43C
:1009C0007DAF009808F10108001D00900398401EBB
:1009D00003907FF44BAE0299012900E058E004BF78
:1009E00006B0BDE8F08F00BFB5EEC00AF1EE10FA18
:1009F0007FF4E9AD04990EFB05F3002B4A684FF034
:100A000000010BD902EB810C9CED000AB5EEC00A87
:100A1000F1EE10FA02D1491C8B42F3D88B427FF4DD
:100A2000D2AD6FF00400CEE5E0EC010A491EFBD127
:100A3000EFE538E0E0EC010A521EFBD108E692ED4A
:100A4000000AD1ED000ABCF1010CE2EC010AA1ECB4
:100A5000010AF4D1B7E694ED000AD0ED000A491E70
:100A6000E4EC010AA0EC010AF5D1BDE6D1ED000AE3
:100A7000401E80EE801AA1EC011AF7D1EEE6D3ED0C
:100A8000000A401E80EE801AA3EC011AF7D10EE78F
:100A9000BCEC011AD1ED000A5B1E40EE410AE1EC0C
:100AA000010AF5D14DE7B0EC011AD2ED000A5B1E48
:100AB00040EE410AE2EC010AF5D17BE72DE9F04F67
:100AC00082B0466853680193058847884B880020A8
:100AD00000900888874201BFB2F800C0654552887F
:100AE00093421EBF6FF0020002B0BDE8F08F9FED91
:100AF000412A4FEA970EC7F3400B00BFDDE9000221
:100B000002EB800A4A6898464FF00009B0EE420AAC
:100B1000B4465FEA0E0025D092ED001ADCED001A13
:100B200002EB8302DCED010A01EE810A92ED001A6C
:100B300002EB8302401ED2ED001A02EB830200EEAC
:100B4000810A9CED021ADCED030A00040CF1100C82
:100B5000000C01EE210A92ED001A02EB830200EE76
:100B6000810AD9D117F0030026D0ACF10404A2EB1E
:100B7000830210F0010F08D002EB8302D4ED010ACA
:100B800092ED001A241D00EE810A5FEA0B0013D0DB
:100B900002EB830CD4ED010A9CED001A02EBC302B8
:100BA000401E00EE810AD4ED020A92ED001A04F113
:100BB000080400EE810AEBD109F10100AAEC010A58
:100BC0001FFA80F9486800EB8902A8F101001FFABA
:100BD00080F8B8F1000F99D1009806EB8706184409
:100BE00080B20090681E05042D0C87D102B0002051
:100BF000BDE8F08F0000000070B405880E884468DE
:100C0000D1F804C05368B54208D140884988884269
:100C100001BF11888D425188884203D070BC6FF0AB
:100C20000200704705FB00F1880827D094ED001AF8
:100C3000DCED000A94ED010ADCED011A31EE601AD8
:100C4000D4ED020A70EE611A9CED020A83ED001ADF
:100C5000C3ED011A94ED031ADCED031A30EEC00A5D
:100C6000401E71EE610A83ED020A04F11004C3ED27
:100C7000030A03F110030CF1100CD7D111F003009B
:100C800030D0B0F1004F30D200282BDD211F1B1FC8
:100C9000ACF1040210F0010F0AD091ED010AD2ED7F
:100CA000010A091D121D30EE600A83ED010A1B1DA9
:100CB000400817D091ED010AD2ED010A401E30EE36
:100CC000600A83ED010A91ED020AD2ED020A01F1F8
:100CD000080102F1080230EE600A83ED020A03F116
:100CE0000803E7D170BC00207047B4EC010A401E35
:100CF000FCEC010A30EE600AA3EC010AF5D1F1E741
:100D00002DE9F04F02884768B0F802804888D1F892
:100D1000049082B04FF0000A1646824207BF09884D
:100D200088456FF0020002B018BFBDE8F08F4FEAAF
:100D3000980B02EB42000190C8F34000CDF8000090
:100D400009EB8A01BBF1000F33D0019801EB820C53
:100D500001EB80043B46E64601EBC2054FEA0B007F
:100D600093ED000A401E81ED000A93ED010A01EBAC
:100D700002118CED000A93ED020A0CEB021C85EDCA
:100D8000000A93ED030A05EB021584ED000A04EB5B
:100D9000021403F11003E3D10EEB820000EB82009A
:100DA00000EB8201ABF10100504307EB0B1701EBA5
:100DB000001118F0030C21D03B1FA1EB82011CF0A5
:100DC000010F06D093ED010A01EB82011B1D81ED9D
:100DD000000A009880B100BF93ED010A01EB820484
:100DE00001EBC20184ED000A93ED020A401E81ED81
:100DF000000A03F10803EFD107EB8C070AF10100A9
:100E00001FFA80FA701E0604360C99D102B0002039
:100E1000BDE8F08F70B5064600F08CF9056806F164
:100E20000B0020F00704B4429CBF002070BD2B468D
:100E30006A68BAB11068A04210D304F10801884270
:100E40003CBF5068586007D3516810194160116861
:100E5000091B016058601460101D70BD1346526874
:100E6000002AE7D12146284600F06CF90028DED19F
:100E700070BD70B50446051F00F05CF90068002CD9
:100E800014BF446870BD002C18BFAC423CBF204664
:100E90006468F8D301680A18AA4218BF456003D1F4
:100EA0002A6805461144016028684119A1421CBF07
:100EB0006C6070BD6168696021680844286070BD1D
:100EC00053EA020C00F069802DE9F04B4FF0000668
:100ED000002B1FBFB3FA83F503FA05F424FA05F6D5
:100EE0005E4012BF1643B2FA82F502FA05F4C5F16C
:100EF00020051EBF22FA05FC44EA0C04203556EA00
:100F0000044C4FEA144418BF641C4FF000084FF023
:100F10000009904271EB030C39D3002919BFB1FAD3
:100F200081F701FA07F6B0FA80F700FA07F6C7F181
:100F300020071EBF20FA07FC46EA0C062037B6FB46
:100F4000F4FCA7EB0507103F07F01F0BCBF12006C1
:100F50000CFA0BFB2CFA06F644BFB3460026202FF2
:100F6000A4BF5E464FF0000B5BEA060C08BF4FF0D3
:100F7000010B19EB0B09ABFB027C48EB0608C01B0D
:100F800006FB02CC0BFB03CC71EB0C01C1E70B465B
:100F9000024641464846BDE8F08B13B54FF00000CD
:100FA0004FF00001AFF30080BDE81C407047032AFA
:100FB00040F2308010F0030C00F0158011F8013B76
:100FC000BCF1020F624498BF11F801CB00F8013B5D
:100FD00038BF11F8013BA2F1040298BF00F801CB21
:100FE00038BF00F8013B11F0030300F02580083AF8
:100FF000C0F0088051F8043B083A51F804CBA0E84F
:101000000810F5E7121D5CBF51F8043B40F8043BA3
:10101000AFF30080D20724BF11F8013B11F801CBD8
:1010200048BF11F8012B24BF00F8013B00F801CBA9
:1010300048BF00F8012B704710B5203AC0F00B8074
:10104000B1E81850203AA0E81850B1E81850A0E8CC
:101050001850BFF4F5AF5FEA027C24BFB1E8185026
:10106000A0E8185044BF18C918C0BDE810405FEA96
:10107000827C24BF51F8043B40F8043B08BF704712
:10108000D20728BF31F8023B48BF11F8012B28BF17
:1010900020F8023B48BF00F8012B70474FF00002D8
:1010A0000429C0F0128010F0030C00F01B80CCF17A
:1010B000040CBCF1020F18BF00F8012BA8BF20F8E8
:1010C000022BA1EB0C0100F00DB85FEAC17C24BF3C
:1010D00000F8012B00F8012B48BF00F8012B7047E6
:1010E0004FF0000200B5134694469646203922BFC1
:1010F000A0E80C50A0E80C50B1F12001BFF4F7AF0C
:10110000090728BFA0E80C5048BF0CC05DF804EBED
:10111000890028BF40F8042B08BF704748BF20F85B
:10112000022B11F0804F18BF00F8012B7047704759
:1011300070477047004870472C7D0020704770470B
:101140007047704738B504460A4600206946AFF339
:101150000080002808BF38BD02460099204600F0F4
:101160004FF8012038BD012000F07CB8F8B5AFF38E
:101170000080054600200C46102000BF0646A81936
:10118000A0420DD9324669460020AFF30080070027
:1011900008BF00F067F80098A04218BF0546C419C0
:1011A000FFF7C8FF05600746F01D20F0070046194D
:1011B000284600F00AF8B44208BFF8BDA21B314629
:1011C0003868BDE8F84000F01BB800210160C0E9B4
:1011D000011070471020704710B500F00DF800683E
:1011E00010BD10B5044600F007F8046010BD000003
:1011F00000487047247D002000487047247D00206F
:10120000034640688C46002818BF88423CBF03460E
:101210004068F8D318681844884207D00CF10300DE
:1012200020F00700001D411A521A0146081D0A60ED
:10123000FFF71FBE1FB584B000200A9C06AB04AAAE
:1012400002A90094AFF3008018B1DDE9020108B0F3
:1012500010BD0348204000F040F800200146F6E7AA
:101260000000207C10B500F03FF8BDE8104000F011
:101270002FB870477546FFF7BBFFAE4605006946BD
:10128000534620F00700854618B020B5FFF75EF8FA
:10129000BDE820404FF000064FF000074FF0000877
:1012A0004FF0000B21F00701AC46ACE8C009ACE8F8
:1012B000C009ACE8C009ACE8C0098D46704710B55C
:1012C0000446AFF300802046BDE81040FEF7C9BFDA
:1012D000002801D000F030B8704710B500F04CF88D
:1012E000BDE81040FFF7F4BF10B5012805D000217C
:1012F00003A000F027F8012010BD09A1F8E70000C5
:1013000053494752544D454D3A204F7574206F66EE
:101310002068656170206D656D6F72790000000056
:101320003A2048656170206D656D6F727920636F3A
:10133000727275707465640001491820ABBEFEE7D7
:101340002600020070B505460C460A2000E06D1C20
:1013500000F068F835B128780028F8D102E0641C64
:1013600000F060F814B120780028F8D1BDE8704092
:101370000A2000F057B8000010B5022803D0410140
:1013800003D50DA112E0002010BD010101D50FA170
:101390000CE0C10001D511A108E0810001D512A126
:1013A00004E0400001D513A100E0002115A0FFF7E3
:1013B000C9FF012010BD0000496E76616C69642090
:1013C0004F7065726174696F6E00000044697669E0
:1013D0006465204279205A65726F00004F7665720D
:1013E000666C6F7700000000556E646572666C6F06
:1013F00077000000496E65786163742052657375EB
:101400006C7400005349474650453A204172697454
:10141000686D6574696320657863657074696F6E63
:101420003A20000008B569468DF800000320ABBEE5
:1014300008BD000001221021014801F0B1BE0000EA
:101440000000024000221021014801F0A9BE000066
:101450000000024001221146014801F0A1BE000037
:101460000004024000220121014801F099BE000061
:101470000004024070B50546FFF7E4FF922000F03B
:101480002DF906226549122000F00AF9FFF7D2FF74
:10149000624CA4F11C0660782178000200B2084377
:1014A00000EE100AD6ED030AB8EEC00A60EE200A7C
:1014B00095ED080A60EE800AC5ED000AE078A17893
:1014C000000200B2084300EE900A96ED031AF8EE0F
:1014D000E00A60EE810A60EE800AC5ED010A6079DB
:1014E0002179000200B2084300EE900A3081F8EE44
:1014F000E00A60EE810A20EE800A85ED020AFFF71D
:10150000B1FF08222146002000F0CAF8FFF7A2FF31
:1015100020780F285AD1F078A1780028E0784FEA97
:10152000002000B240EA01002BD000EE100AD5EDF9
:10153000090AB8EEC01A96ED040A51EE000AC5ED8C
:10154000030A60792179000200B2084300EE900A94
:1015500095ED0A1AF8EEE00A10EE801A85ED041AED
:10156000E079A179000200B2084300EE900A3081D0
:1015700095ED0B1AF8EEE00A10EE801A85ED051ACB
:1015800024E000EE100AF8EEC00A96ED040A60EEC0
:10159000800AC5ED030A60792179000200B2084390
:1015A00000EE900AF8EEE00A60EE800AC5ED040A4B
:1015B000E079A179000200B2084300EE900A308180
:1015C000F8EEE00A20EE800A85ED050AFFF73AFF03
:1015D000A22000F083F802221049222000F060F8D7
:1015E000FFF728FF20786178C00040EA5110308171
:1015F000B0F5806F02DBA0F500603081B6F908001D
:10160000B4EE001A00EE100AF8EEC00AB3EE070AB4
:1016100000EE810A85ED070A70BD0000D4020020AB
:1016200070B50D461649174C08600020A07009F0EF
:1016300093FFA1780843A0700AF022F8A17808432C
:10164000A0701DB1104800F0E5F916E00E489FEDBE
:101650000F0A80ED090A9FED0E0A80ED0A0A80ED5F
:101660000B0A9FED0C0A80ED0C0A9FED0B0A80ED32
:10167000080A9FED0A0A80ED060AA07870BD0000F6
:1016800000030020B802002024700020AC38223B68
:10169000B016CE393F161B41C48B813F000020425B
:1016A00070B514460D4640F0800000F017F806E0D3
:1016B000552000F013F8641E05F8010BE4B2002C6D
:1016C000F6D170BD10B50C4640F0800000F006F871
:1016D000552000F003F8207010BD000001B582B065
:1016E0004FF47A7000900548012301AA02A900680E
:1016F00002F00AFF9DF804000EBD00000003002068
:1017000010B50C46FFF7EAFF2046BDE81040FFF792
:10171000E5BF91F82520032A16D291F826209AB128
:10172000B1F92A20824202DB5242824203DDD1F823
:101730002E00401C00E00020C1F82E00B1F92C1052
:10174000884201DD0120704700207047B6EE000A94
:10175000D2ED020AF0EE401A92ED031A40EEE01AC2
:1017600090ED002AD2ED012AD0ED013A22EEA03A06
:1017700041EE411A21EE822AD2ED001A01EEC13A61
:1017800022EE811A01EEA01A03EE232AD0ED020AFE
:10179000F0EE001A01EE202A62EE210AC1ED000AE5
:1017A00092ED011AD2ED023A92ED002AD2ED030A2F
:1017B00061EE232A90ED003A90ED014A42EE202A94
:1017C00062EE832AB0EE403A01EE413A00EEE03A92
:1017D00063EEA00A42EE410A43EE042A90ED021A9B
:1017E00040EE812A62EEA10AC1ED010A92ED011AD2
:1017F000D2ED032AD2ED020A92ED003A21EE222A1E
:1018000060EEA22AD0ED003A01EE410A03EE602A12
:1018100043EE012A90ED013A00EEE00A22EE232A7F
:10182000D0ED020A02EE832A00EE202A22EE210ADF
:1018300081ED020A7047FEE7014800F09CBF0000FE
:101840005006002000B58BB000200121CDE9060133
:1018500008910090019002900390059004906946D1
:10186000054800F08DFE044801F0BAF90221024853
:1018700000F006FE0BB000BD50060020014800F04D
:101880007ABF00007806002000B58BB0002001214F
:1018900000900E22CDE904020390CDE90601CDE9C6
:1018A0000812019002906946054800F069FE04485C
:1018B00001F096F90221024800F0E2FD0BB000BDF4
:1018C0007806002018B50A2A5AD202EBC2022D4B24
:1018D00002EB420203EB420424F8170C24F81B1C11
:1018E00034F81D0D081AA080608824F8010914F846
:1018F000180938B901202076B4F81F00A4F8210097
:1019000000B26060B4F81F00B4F82110401A00B2B1
:10191000B4F9231009F00FFE0090206800990844E4
:1019200020606068009908446060B4F81F00A4F863
:1019300021006068B4F928104843B4F9231090FBE3
:10194000F1F000EE100AB8EEC00A10EE100AA06026
:101950002068B4F928104843B4F9231090FBF1F043
:1019600000EE100A2146B8EEC00A10EE100A6061BF
:10197000009800B2FFF7CDFE84F827000020009009
:1019800018BD0000D8630020002070470020704779
:1019900010B500220449054807F0A6FC0449034895
:1019A00007F095FC002010BD5C170020800A002085
:1019B0005C0F002070B50C4605460146074807F04D
:1019C00086FC064807F05CFC05480068006A18B110
:1019D000294622680AF01AFA002070BD800A002009
:1019E0007402002000207047094A10B5D2F8BC22CA
:1019F000D2F814220AB1012010BD0A46014604485B
:101A000007F072FCBDE81040014807F0E7BC000099
:101A1000800A00202DE9F04F04462DED048B89B09B
:101A200000200090019000F0EDFAED4DDFF8B4B326
:101A3000DFF8B49385ED050A02AE0DF114084FF0FE
:101A40007C5A00BF00F0DEFAD5ED050A30EE600AE0
:101A500010EE100A584512DD9FEDE40A84ED090AE4
:101A60009FEDE30A84ED0A0A84ED0B0A9FEDE10A7B
:101A700084ED0C0A9FEDE00A84ED060A8BE19FEDF0
:101A8000DF0A00F083FA9FEDDE0A002784ED0C0ADE
:101A900084ED090A84ED0A0A84ED0B0AFBE000BF1D
:101AA000FFF7D0FC9220FFF719FE062269461220AC
:101AB000FFF7F6FDFFF7BEFC9DF801009DF8001052
:101AC000000200B2084300EE100AD5ED030AB8EE9A
:101AD000C00A60EE201AC4ED001A9DF803009DF8BC
:101AE0000210000200B2084300EE100A95ED031A3E
:101AF000B8EEC00A60EE010AC4ED010A9DF80500C7
:101B00009DF80410000200B2084300EE100AB8EE7F
:101B1000C00A20EE011A21EEA10A84ED021A00EE9D
:101B2000A00A01EE010A09F06BFCB0EE408A94EDC8
:101B30000C0A30EE080A84ED0C0AFFF793FC082229
:101B400069460020FFF7ACFDFFF784FC9DF800001C
:101B50000F2840D19DF803009DF80210000200B24A
:101B6000084300EE100AD5ED040AB8EEC00A20EED4
:101B7000200A84ED030A94ED091A31EE000A84ED7F
:101B8000090A9DF805009DF80410000200B2084300
:101B900000EE100AB8EEC00A20EE200A84ED040A16
:101BA00094ED0A1A31EE000A84ED0A0A9DF8070046
:101BB0009DF80610000200B2084300EE100AB8EECD
:101BC000C00A20EE200A84ED050AD4ED0B0A30EE9F
:101BD000800A84ED0B0A002F7ED0B4EEC98AF1EEA4
:101BE00010FA01DDB0EE489AB4EEE88AF1EE10FA90
:101BF00001D2F0EE488A00204FEA080204EB80018F
:101C000091ED030A06EB8001D1ED000AB4EEE00A83
:101C1000F1EE10FA01DD81ED000A02EB8001D1ED59
:101C2000000AB4EEE00AF1EE10FA01D281ED000AEA
:101C3000401CC0B20328E1D339EE680A00204246B6
:101C400085ED060A4FEA090106EB8003D3ED000A91
:101C500002EB800393ED001A01EB8003401C70EE51
:101C6000C10AC0B20328C3ED000AEDD310EE100A7A
:101C7000504514DC63480A68824210DC4A6882429C
:101C80000DDCD9F80810814209DC9FED5F0A00F0F5
:101C90007DF97F1CBFB2E8888742FFF401AFE98875
:101CA000D4ED0C0A00EE101A2F460020B8EE400AC0
:101CB00080EE801A84ED0C1A00EE101A04EB8002FC
:101CC000401CB8EE400AD2ED090AC0B2032880EEEB
:101CD000801A82ED091A00E06AE0EDD3FFF7B2FB4B
:101CE000A220FFF7FBFC022269462220FFF7D8FC66
:101CF000FFF7A0FB9DF800009DF80110C00040EA2E
:101D00005110B0F5806F01DBA0F5006000EE100A05
:101D1000B4EE001AF8EEC00AB3EE070A00EE810A2C
:101D200084ED060AB888401CB880B86950453FF772
:101D300089AE94ED0C0ADFED350A30EE600AB0EEA4
:101D4000C00A10EE100A5045F1DC2E48D9F80010F8
:101D50004A468142EBDC51688142E8DCD9F8081040
:101D60008142E4DC94ED090A2948B0EEC00A10EE85
:101D7000101A8142DBDC94ED0A0AB0EEC00A10EEC4
:101D8000101A8142D3DC94ED0B0AB0EEC00A10EEBB
:101D9000101A8142CBDC94ED0C0ADFED1E0A80EEB6
:101DA000801A84ED081A09B0BDEC048BBDE8F08FF1
:101DB000B0EE489AF0EE488A0020414604EB8002DB
:101DC00092ED030A06EB800282ED000A01EB80022D
:101DD000401CC0B282ED000A0328EFD32CE70000BC
:101DE000B80200200000204118700020AC38223BCF
:101DF000B016CE393F161B41000020420AD7A33B44
:101E0000000000009A99193E6F12033ACDCC1C4194
:101E10000AD7233CC3F51C41C16B00EE101AB5EE86
:101E2000C00AF1EE10FA00EE101A01DCB1EE400A21
:101E3000036E00EE903AB4EEE00AF1EE10FA33D9F8
:101E400000EE101AB5EEC00AF1EE10FA00EE101A0C
:101E500001DCB1EE400AC26D00EE902AB4EEE00A59
:101E6000F1EE10FA01DD00211DE000EE101A00EE87
:101E7000902AB5EEC00AF1EE10FA00EE101A01DC5D
:101E8000B1EE400AC16930EEC01A00EE102A00EE31
:101E9000903A30EE600AC1EE000A00EE101A20EE11
:101EA000800A10EE101AC16170470000014800F06E
:101EB00025BF000018090020014800F01FBF0000E6
:101EC000F8060020014800F019BF00007809002042
:101ED000014800F013BF000058070020014800F03F
:101EE0000DBF0000D809002001681823CAB2103ABB
:101EF000B2FBF3F2054B6FF30901032A9B5CC36548
:101F000000D9091D8165084670470000CCEC000827
:101F100010B5014600208B698A6A4FF0C07453B136
:101F2000B3F5005F15D072B1012A0CD0022A0AD095
:101F3000032A09D104E01AB1012A06D0022A03D1EA
:101F4000C96AC90100D5012010BDC96AA142FAD0F1
:101F500010BD002AF7D0012AF2D0022AF3D0032ABA
:101F6000F3D010BD074808B5406800900146064808
:101F70000269914202D2C168491CC16000990161A5
:101F800008BD0000001000E0980100200A494868E0
:101F90000A4AD2ED000A4A68121AF8EE601A01EEF7
:101FA000102AB8EE411A60EE211AB4EEE11AF1EEF1
:101FB00010FAF0D370470000001000E098010020F4
:101FC00000B50E492DED028B81B049680091016882
:101FD000009A511A00EE101A0949F8EE400A91EDE4
:101FE000000A0260B8EE400A80EE808AFFF7BAFF6E
:101FF00001B0B0EE480ABDEC028B00BD001000E05D
:102000009801002010B500F043F80C489FED0C1A21
:10201000818890ED000A00EE901AC088B8EE400A60
:10202000F8EE600A00EE810A00EE900A9FED051AB4
:10203000F8EE600A00EE810A10BD0000C801002021
:102040006F12833ABD3786350D490A6842F08072B7
:102050000A600C4900224A600B6843F001030B60E0
:1020600009494FF47A734843B0FBF3F30749C1E9D8
:102070000003054BB0FBF3F0C1E90202704700001A
:10208000FCED00E0001000E040420F00980100204D
:102090002DE9F843214840680090FFF763FF204F87
:1020A0000024009EF8684FF0FF312546E0FB0165F3
:1020B000C7E90E65D7F800802346424630462946D8
:1020C000FEF7FEFEA0FB083CC7E9060101FB08C1C4
:1020D00000FB0411F61A65EB0105C7E9086507F175
:1020E00030080023C8F80000D7F8049030464A466C
:1020F0002946FEF7E5FE80B2A8F8040000FB09F0CF
:10210000301A65EB0405C7E90A0529460023BA68B9
:10211000FEF7D6FEA8F80600BDE8F883001000E040
:102120009801002070470000034A2423A2F12401F3
:10213000024805F067BF0000B4630020900800204B
:10214000014805F091BF000090080020102000F029
:1021500023BF202000F020BFB6EE000AD2ED020A15
:10216000F0EE401A92ED031A40EEE01A90ED002ACC
:10217000D2ED012AD0ED013A22EEA03A41EE411A09
:1021800021EE822AD2ED001A01EE813A22EE811A66
:1021900001EEE01A03EE232AD0ED020AF0EE001A57
:1021A00001EE202A62EE210AC1ED000A92ED011A29
:1021B000D2ED023A92ED002AD2ED030A61EE232A13
:1021C00090ED003A90ED014A42EE602A62EE832AD9
:1021D000B0EE403A01EE413A00EEE03A63EEA00A7A
:1021E00042EE010A43EE042A90ED021A40EE812AE3
:1021F00062EEA10AC1ED010A92ED011AD2ED032AA5
:10220000D2ED020A92ED003A21EE222A60EEA22AD5
:10221000D0ED003A01EE410A03EE202A43EE412AB6
:1022200090ED013A00EEE00A22EE232AD0ED020AF8
:1022300002EE832A00EE202A22EE210A81ED020A14
:10224000704700210160416081604161704700007A
:1022500070B505460A2901D3002070BD01EBC1000D
:10226000184900EB400001EB4004363C204600F0EA
:102270002BF884F82550002084F8270084F82600E5
:102280004FF400503DB10121012D0ED0022D10D090
:10229000042D15D110E0A4F82300132020850A2076
:1022A00060854FF48070A0850AE0A4F823002185A2
:1022B00006E043F6FF70F8E7A4F823002420208509
:1022C000204670BDD86300203621FEF7E7BE72B607
:1022D000FEE7000000487047EC6C002000487047A3
:1022E000F467002070B504462DED028B4FF4147195
:1022F000FEF7F6FE05F082FE2060FFF7EBFF606060
:10230000FFF7ECFFA0600AF009F820610AF00EF870
:10231000C4F8280109F0F2FF0121C4F84802084678
:10232000FFF796FF606102210120FFF791FFC4F8DB
:102330002C01374B0122022104F1A80004F00EFD0C
:10234000334B0122103B022104F5E07004F006FD3E
:102350002F4B01222033022104F1D80004F0FEFCAF
:102360002B4B01221033022104F5F87004F0F6FC27
:102370009FED288A04F118001221B0EE481AF2EEFF
:10238000000AB0EE480A054605F065FDF9EE040ABC
:10239000B1EE040A1021284605F07BFDF0EE480A54
:1023A0009FED1D0A0221284605F073FD04F5987083
:1023B0001221B0EE481AF2EE000AB0EE480A0546C5
:1023C00005F049FDFAEE040AB2EE040A102128468F
:1023D00005F05FFDF0EE480A9FED100A0221284645
:1023E00005F057FD0A2104F584700AF033FD0A2137
:1023F00004F508700AF02EFD002060732073D4F8F5
:102400002C01FFF71EFF84ED908ABDEC028B70BD9E
:10241000E80100200000000000007A44000016449B
:102420001648FFF75FFF154C0AF0BAFD134D28461A
:1024300009F080FF284609F0ABFF28460AF0F4F8BF
:102440000AF0CEFD94ED490ABDEEC00A10EE100A66
:1024500001B2002009F0BAF994ED8F0ABDEEC00A6E
:1024600010EE100A00B209F0E3F9D4F82801008850
:1024700009F0FEF901200AF035FED5E7F0690020E9
:1024800090F82020012A07D0022A05D0416A41F4A1
:102490008021416201207047006842690A4342611D
:1024A00000207047F0B590F820500468A468012D12
:1024B00005D0022D03D0416A41F480215DE014F083
:1024C000406F01D1E50055D5C4F30164022C03D956
:1024D000416A41F4000150E00125A5401D608D686E
:1024E0004FF4C0739DB1CE6835434E6845EAC605CA
:1024F000066803EB0417F5514FF4C275076805EB46
:1025000004150E697E51097D012905D009E00E8868
:10251000CD6845EA4655EBE701684E5946F48076AA
:102520004E511179D579567941EA056195792D0495
:1025300045EA062529434FF4C676056806EB0416DE
:10254000A9511178D57841EA0561957852782D0422
:1025500045EA022211434FF4C475026805EB0415E5
:102560005151006803EB0411425842F001024250FD
:102570000020F0BD416A41F4001141620120F0BD2C
:1025800010B590F82020012A07D0022A05D0416A10
:1025900041F480214162012010BD3B48D0F8002267
:1025A00042F00102C0F80022D0F8002222F47C524E
:1025B000C0F80022D0F800224B6A42EA0322C0F899
:1025C00000220A7D02F01F0301229A40D0F81C323B
:1025D0009343C0F81C32CB69B3B9D0F80C329343A3
:1025E000C0F80C328C894B6864F31F434C6900EBD4
:1025F000C404C4F840320C890B6864F31F434C696F
:1026000000EBC404C4F84432CB69012B16D1D0F8D6
:102610000C321343C0F80C320C884B6864F31F4330
:102620004C6900EBC404C4F840320C89CB6864F3F5
:102630001F434C6900EBC404C4F844328B69002B7F
:10264000D0F804320ED01343C0F804320B69002BCB
:10265000D0F8143208D01343C0F81432096A0129A3
:1026600004D008E09343EFE79343F5E7D0F81C125A
:102670001143C0F81C12D0F8001221F00101C0F87B
:102680000012002010BD000000640040704730B50B
:1026900090F82040012C05D0022C03D0416A41F46F
:1026A00080215DE00468002955D02469A40754D036
:1026B0004FF4D874056804EB01142D5915F0040586
:1026C000956005682D594ED0ED08556005682C5968
:1026D00004F00204D4604FF4DA74056804EB0114CA
:1026E0002D5905F00F05156105682D59C5F307250E
:1026F000956105682C59240C54614FF4DC72046810
:1027000002EB0112A4581C700468A458240A5C70DF
:102710000468A458240C9C700468A258120EDA7045
:102720004FF4DE72046802EB0112A4581C710468B5
:10273000A458240A5C710468A458240C9C71046891
:10274000A258120EDA71006881B1016941F02001CE
:102750000161002030BDE468A8E7416A41F400113E
:102760004162012030BD6D0D1560AFE7C16841F0D9
:102770002001C160EDE72DE9F05F05460068002407
:102780004669D0F804908768D0F80CB0D0F810A053
:10279000D0F81880F10748D0F90714D001218160E2
:1027A000B80703D5284600F048FA0CE0780702D5B0
:1027B0004FF4006407E0380702D54FF4805402E07C
:1027C000284600F039FAF80516D529684FF48070CC
:1027D0008860B80503D5284600F031FA0CE078058A
:1027E00002D544F4005407E0380502D544F480448F
:1027F00002E0284600F022FAF80316D529684FF4C3
:1028000080308860B80303D5284600F01AFA0CE03F
:10281000780302D544F4004407E0380302D544F4B9
:10282000803402E0284600F00BFA300707D55FEA53
:10283000CB6004D52968102044F40074C860700788
:102840004FF0080707D55FEA0B7004D52868C7600A
:10285000284600F0A9F9B00706D52868C0688007A7
:1028600002D0284600F0A2F9700607D55FEACA60D8
:1028700004D52968102044F480640861B00607D5A7
:102880005FEA0A7004D528680761284600F0A4F9B9
:10289000F00606D528680069800702D0284600F0B7
:1028A0009CF9B00308D55FEAC96005D529681020F6
:1028B0004860284600F092F9F00307D55FEA0970F6
:1028C00004D528684760284600F0BCF9300446D596
:1028D0005FEA497040D5F00504D55FEAC87001D0C1
:1028E00044F00104B00504D55FEA887001D544F0D6
:1028F0000204700504D55FEA487001D544F0040471
:10290000300529D518F0700F26D008F07000402847
:1029100015D006DC102809D020280AD0302816D17E
:102920000AE050280ED0602811D10EE044F00804CF
:102930000DE044F010040AE044F0200407E044F005
:10294000400404E044F0800401E044F4807428680A
:10295000816921F070018161296804204860002CA0
:1029600005D0686A204368622846FFF78FFEBDE8FD
:10297000F09F70B5040003D094F8200010B104E07B
:10298000012070BD204600F091F82068016841F0F8
:102990000101016000F00AFC0546052604E000F094
:1029A00005FC401B0A2811D820684068C007F6D0F3
:1029B0002068016821F00201016000F0F7FB054684
:1029C0000BE000F0F3FB401B0A2806D9606A40F4D4
:1029D0000030606284F82060D2E720684068800799
:1029E000EFD4207E0128206801683DD021F08001CD
:1029F0000160607E01282068016838D021F0400124
:102A00000160A07E01282068016833D021F02001F8
:102A10000160E07E0128206801682ED041F010019D
:102A20000160207F01282068016829D021F0080179
:102A30000160607F01282068016824D021F0040132
:102A40000160D4E902010843D4E9041211430843A8
:102A50006168491E08432168C86100206062012046
:102A600084F82000002070BD41F08001C0E741F0F3
:102A70004001C5E741F02001CAE721F01001CFE78E
:102A800041F00801D4E741F00401D9E703460020F2
:102A900093F82020012A01D0022A05D11A6889065C
:102AA0009268914300D0012070470000F0B587B0D4
:102AB000044614216846FEF713FB364B3648DFF810
:102AC000D0E01968D4F800C0334A0325022609274C
:102AD00010300024491CF44522D11960012907D186
:102AE000016841F000710160006800F0007005901D
:102AF000106840F0080010601068CDE9005600F042
:102B00000800CDE9047069462448CDE9024500F08B
:102B10004FFA00220521142000F0E6FB142032E0D9
:102B2000DFF87CE0F44530D1D0F800C04CF0806C88
:102B3000C0F800C0D0F800C001290CF0806CCDF8BE
:102B400014C0196007D1016841F00071016000688C
:102B500000F000700590106840F0020010601068EE
:102B600002AB00F0020005906020CDE9000683E88A
:102B7000B00069460B4800F01BFA002205214020F6
:102B800000F0B2FB402000F0A1FB07B0F0BD000058
:102B9000006400400800002030380240000C024071
:102BA00000680040000402407047000010B5044671
:102BB0000748844202D1204609F062FC054884425D
:102BC00004D12046BDE8104009F0ACBC10BD0000A7
:102BD00050060020780600207047704770470000BC
:102BE00070B5044690F82000012804D0606A40F4D3
:102BF0000020606218E0022084F82000206801684C
:102C000021F00101016000F0D1FA05460EE000BF9D
:102C100000F0CCFA401B0A2808D9606A40F4003062
:102C20006062052084F82000012070BD20684068A3
:102C3000C007EDD1606270BD704770477047704744
:102C40007047704770472DE9F0410446876D00F0EA
:102C5000ADFA064694F835000025022806D08020FB
:102C6000606584F834500120BDE8F0812068016877
:102C700021F0160101602068416921F08001416165
:102C8000206C08B9A06C20B12068016821F008010F
:102C900001602068016821F0010101600CE000F092
:102CA00085FA801B052807D920206065032084F859
:102CB000350084F83450D7E720680068C007EED1AB
:102CC00094F85C103F208840B860012084F83500FB
:102CD00084F834500020C7E790F83510022903D05B
:102CE0008021416501207047052180F8351000687A
:102CF000016821F001010160002070472DE9F843CF
:102D000004464FF00009CDF8009063484FF4165187
:102D1000A56D0068B0FBF1F72E6894F85C100820F0
:102D200000FA01F131420FD021680A6852070BD531
:102D30000A6822F004020A6094F85C108840A860D7
:102D4000606D40F00100606594F85C104FF0010880
:102D500008FA01F0304208D021684969090604D513
:102D6000A860606D40F00200606594F85C1004207B
:102D70008840304208D021680968890704D5A860D6
:102D8000606D40F00400606594F85C10102088408D
:102D9000304218D021680968090714D5A860206856
:102DA0000168490304D50068000308D5A16C07E059
:102DB0000168C90503D4016821F008010160216C94
:102DC00009B12046884794F85C10202088403042A2
:102DD00031D021680968C9062DD5A86094F835005E
:102DE00005282068016806D0490347D5006800031C
:102DF0001DD4616C1CE021F016010160206841695E
:102E000021F080014161206C08B9A06C20B12068DC
:102E1000016821F00801016094F85C103F208840AF
:102E2000A86084F8358084F83490216D1FE0E16B50
:102E300009B120468847606D00282BD0606DC0071F
:102E400014D0052084F835002068016821F00101C4
:102E500001600098401C0090B84203D820680068C8
:102E6000C007F6D184F8358084F83490E16C0029ED
:102E700010D001B02046BDE8F04308470168C905FD
:102E8000D5D4016821F01001016084F8358084F800
:102E90003490CCE7BDE8F8837C0000202DE9F041B8
:102EA000044600F083F906465CB1022084F8350040
:102EB000002584F834502068016821F00101016088
:102EC0000DE00120BDE8F08100F070F9801B0528BD
:102ED00005D920206065032084F83500F2E72068DA
:102EE0000068C007F0D12268116820480140D4E989
:102EF00001031843D4E90336334318436369184385
:102F0000A3691843E3691843236A18430843616AB5
:102F1000042903D1D4E90B13194308431060206836
:102F20004069666A20F0070130460E4301270428F5
:102F30000CD1A06A0643E06A40B12046FEF7E8FFE4
:102F400020B14020606584F83570BAE7206846619A
:102F50002046FEF7C9FF94F85C203F219140816034
:102F6000656584F835700020ACE700003F8010F004
:102F700070B5044600F01AF90546601C02D00448FA
:102F80000078044400F012F9401BA042FAD370BD4F
:102F90007000002070470000044910B50A68024222
:102FA00002D00860FFF7F6FF10BD0000143C01409E
:102FB0002DE9F84FDFF8BCA10022012503264FF0D0
:102FC0000F090AF1040BAAF1040E00BF0B6805FA01
:102FD00002F42340A34270D10F7907F00307012FB9
:102FE00001D0022F16D187684FEA420806FA08FC82
:102FF00027EA0C07D1F80CC00CFA08FC4CEA070CC5
:10300000C0F808C04768A7430C79C4F30014944083
:103010003C4344600C79E443A4070AD0C4684FEAF7
:10302000420C06FA0CF7BC438F6807FA0CF72743EB
:10303000C7600C7904F00304022C12D1D40800EB11
:10304000840CDCF820405707FF0E09FA07F824EA41
:103050000804D1F8108008FA07F848EA0408CCF808
:10306000208004684FEA420C06FA0CF7BC430F7943
:1030700007F0030707FA0CF7274307604C6814F4BE
:10308000403F70D03C4C276847F480472760246855
:1030900022F0030704F480440094384C07EB040C3E
:1030A000DCF8084897074FEA177809FA08F7BC4395
:1030B000334FB84202D1002724E054E0314FB842E8
:1030C00001D101271EE0304FB84201D1022719E09B
:1030D0002E4FB84201D1032714E02D4FB84201D141
:1030E00004270FE02B4FB84201D105270AE02A4FF1
:1030F000B84201D1062705E0284FB84201D1072781
:1031000000E0082707FA08F72743CCF80878DAF830
:1031100000405746D1F804C09C435FEACC2C00D550
:103120001C433C60DBF800405F46D1F804C09C4380
:103130005FEA8C2C00D51C433C60DEF800407746EB
:10314000D1F804C09C435FEA8C3C00D51C433C6032
:10315000084F083F3C68D1F804C09C435FEACC3C70
:1031600000D51C433C60521C102AFFF42FAFBDE871
:10317000F88F0000083C0140443802400030014014
:10318000000002400004024000080240000C02401F
:10319000001002400014024000180240001C0240CF
:1031A0000AB1816170470904FBE7000001488068AB
:1031B00070470000700000200248816802781144C6
:1031C00081607047700000200B4810B5016841F421
:1031D00000710160016841F480610160016841F49F
:1031E00080710160032000F09FF80F2000F006F8C6
:1031F00000F050F8002010BD003C024030B50546FC
:10320000204887B00024016841F001010160006896
:1032100006A900F00100009001A800F06BFE0498E0
:10322000B0B100F08DFE400017494FF08042B0FB76
:10323000F1F11648491E026040F2E732C0E903246A
:10324000C0E90114846101F0C5FA040003D015E05F
:1032500000F076FEE8E70D4801F05EFB04000DD1BA
:103260001C2000F033F8102D07D2002229461C2024
:1032700000F03AF80648056000E0012407B0204657
:1032800030BD00004038024040420F00380A0020A4
:10329000740000200C4882B0016841F48041016054
:1032A000006800F4804000900748001F016841F06A
:1032B000805101600068002200F0805000900F21D2
:1032C000901E02B000F010B844380240002809DB1C
:1032D00000F01F02012191404009800000F1E02030
:1032E000C0F8001170470000F0B40E4B1B680C468C
:1032F000C3F30223C3F10705042D00D90425191DCA
:10330000072901D2002300E0DB1E012606FA05F1A1
:10331000491E214099409E40761E16403143F0BC24
:1033200007F0E5BD0CED00E0064900F00702086873
:103330004FF6FF03184040EA0220034A104308609A
:10334000704700000CED00E00000FA0570470068CF
:10335000416200207047F0B50368586A39B19C6A31
:103360004FF4827600EB144400204D1E0AE040EA40
:10337000024098620FE006EB8007DF59401C04EB27
:103380001744C0B2A842F6D344EA02404FF4807218
:1033900002EB810158500020F0BDD0F8080506F07E
:1033A000A3BA01EBC10200EB8202D0F80805D26C8F
:1033B00006F0F8B901EBC10200EB8202D0F8080573
:1033C000D2F88C2206F049BAD0F8080506F08EBA79
:1033D0000A0601F00F0101EBC10100EB810101D5EB
:1033E0003C3101E001F51F71006807F0C3B970B509
:1033F00004460B0601F00F0000EBC00104EB810155
:103400004FF001024FF0000503D581F83D203C311B
:1034100003E081F87D5201F51F71087094F8BC0437
:10342000012808D084F8BC24206806F05DFE84F8EA
:10343000BC54002070BD022070BD70B5044601F080
:103440000F006268904201D9012070BD0B0601F0A7
:103450000F0101EBC10104EB81014FF001024FF0BC
:10346000000503D581F83D203C3103E081F87D5211
:1034700001F51F718D70087094F8BC04012808D004
:1034800084F8BC24206807F02BF884F8BC54002092
:1034900070BD022070BD01F00F0101EBC10100EB16
:1034A0008100D0F89C0270472DE9F04104460F06D8
:1034B00001F00F0000EBC00104EB81014FF00106A9
:1034C0004FF0000503D581F83D603C3103E081F801
:1034D0007D5201F51F710870CA600B714A7802B104
:1034E0000881022B00D14D7194F8BC04012809D049
:1034F00084F8BC64206806F04FFD284684F8BC546C
:10350000BDE8F0810220FBE770B50C4601F00F0525
:1035100005EBC50100EB8101C1F89432C1F88C22A2
:103520000023C1F89C3281F87D3281F87C52036916
:1035300001F51F71012B00D14A612207027C00684E
:1035400003D007F025F8002070BD06F00FFFFAE762
:1035500070B504460D4601F00F006168884201D93C
:10356000012070BD29064FF000064FF0010207D57B
:1035700000EBC00104EB810181F83D203C3107E004
:1035800005EBC50104EB810181F87D6201F51F7136
:103590008A70087094F8BC04012807D084F8BC2411
:1035A000206806F0C9FF280702D007E0022070BD9E
:1035B000217C04F2C442206806F066FF84F8BC64F3
:1035C000002070BD70B50C4601F00F0505EBC5017C
:1035D00000EB81014B65CA640023CB65012381F8B0
:1035E0003D3001F83C5F0369012B00D14A6122079D
:1035F000027C006803D006F0CBFF002070BD06F00F
:10360000B5FEFAE72DE9FC5F05680446284607F099
:1036100052F900287DD1206807F079F9002878D088
:10362000D5F80808C0F30D20C4F8FC04206807F0A2
:103630006EF9800704D52068416901F002014161FB
:10364000206807F064F9C10604F2C440009034D544
:103650002068816921F0100181612F6A07F00F0055
:1036600000EBC00004EB8006C7F3434006F51F766D
:10367000022802D0062811D01AE047F6F07007425F
:1036800016D0C7F30A1217462846316907F043F9E6
:10369000306938443061306A384408E008222846EE
:1036A000009907F038F9306AC7F30A11084430620C
:1036B0002068816941F010018161206807F027F9D5
:1036C00000034FF0080B4FF0000A4FF001097CD5C2
:1036D0000026206807F0FAF8074674E0F80770D073
:1036E000F1B2206807F00BF98046C00707D005EB60
:1036F0004611C1F8089B3146204603F06DFF5FEA92
:10370000087024D505EB4611C1F808BB2068016C90
:1037100000E025E200EB46100191D0F8082BFC4BAD
:10372000994205D9110403D54FF40041C0F8081B94
:10373000204600F005FBF6490198884207D9206928
:10374000012804D120680121009A06F09DFE5FEA5D
:10375000C86004D505EB46111020C1F8080B5FEADC
:1037600088701DD56869000605D5D5F8040840F4B1
:103770008061C5F8041806EBC60004EB800090F8E1
:103780007F1200F51F70012905D180F803A0F1B266
:10379000204600F0EBF905EB46110220C1F8080BBA
:1037A0005FEA886004D505EB46102021C0F8081BAD
:1037B0005FEA884005D505EB46104FF40051C0F88C
:1037C000081B7F08761C002F88D1206807F09FF81F
:1037D00040036FD5206807F072F80746002667E0BF
:1037E000F80763D0F1B2206807F077F88046C00789
:1037F00023D006F00F0209FA02F0D5F834288243EC
:10380000C5F8342805EB4610C0F80899206901284E
:103810000FD106EBC60004EB8000D0E91221114461
:10382000C16436B9606D20B920680121009A06F0A4
:103830002BFEF1B22046FFF7B4FD5FEA087003D516
:1038400005EB4611C1F808B95FEAC86004D505EB7D
:1038500046111020C1F808095FEA486004D505EB5D
:1038600046104021C0F808195FEA887017D5314624
:10387000284606F0F3FF06EBC60004EB800090F844
:103880003F103C30012905D180F803A0F1B2204659
:1038900000F068F905EB46110220C1F808095FEA5B
:1038A000086003D53146204603F0FCFE7F08761CF5
:1038B000002F95D1206807F02AF8002811DAD5F8F2
:1038C000040820F00101C5F8041894F8F404012854
:1038D0002BD0204600F018FA2068416901F0004121
:1038E0004161206807F013F800050BD5D5F80808EA
:1038F000C00702D0204600F04BFA2068416901F46D
:1039000000614161206807F002F8C00466D5D5F86F
:10391000040820F00100C5F804081021206806F012
:103920009DFF00214FF67F321FE084F8F4A40021B0
:103930002046FFF70BFDCFE705EB4110C0F8082943
:10394000D0F8003923F40013C0F80039C0F8082B70
:10395000D0F8003B23F40013C0F8003BD0F8003B44
:1039600043F00063C0F8003B491C60688842E3D81C
:10397000D5F81C0840F00111C5F81C18206B002870
:1039800028460DD0D0F8840840F00B01C5F8841803
:10399000D5F8440840F00B012846C5F844180DE05E
:1039A000D0F8140842F22B010843C5F81408D5F8E2
:1039B000100840F00B012846C5F81018D0F8000890
:1039C00020F4FE61C5F80018217C2068009A06F0FA
:1039D0005BFD2068416901F480514161206806F077
:1039E00096FF800415D5206806F016FB206806F0C7
:1039F00055FFE06000F09EFA0146227B206806F049
:103A0000E9FF204600F06AF92068416901F400519D
:103A10004161206806F07BFF000707D5204600F0D3
:103A200077F92068416901F008014161206806F0DA
:103A30006EFF000616D5A86920F08000A861012657
:103A40000DE000BF06EBC60004EB800090F87F029B
:103A5000012803D1F1B22046FFF7BAFC761C60685A
:103A6000B042EFD8206806F052FFC00221D50126EF
:103A70004F4616E005EB4610D0F8001906EBC600DD
:103A800004EB800090F84020012A09D1002907DAD0
:103A900080F83F70F0B240F080012046FFF798FCBC
:103AA000761C6068B042E5D82068416901F4801155
:103AB0004161206806F02BFF800234D501204B467F
:103AC00029E000BF05EB4011D1F8001B00EBC0025C
:103AD00004EB820696F88022012A1BD1002919DA0C
:103AE00094F8FC2401F4803102F00102914211D1DA
:103AF00086F87F32A96941F08002AA6169690906E6
:103B000008D4D5F8040840F40070C5F8040805E0AE
:103B10000A30544F401C61688142D3D82068416903
:103B200001F400114161206806F0F1FE400007D564
:103B30002046FFF732FC2068416901F08041416175
:103B4000206806F0E4FE40070AD52068456868074B
:103B500002D52046FFF738FC2068416829434160C0
:103B6000BDE8FC9FD0F8080505F014BFD0F80805A3
:103B700005F024BF2DE9F0418AB0040005D094F887
:103B8000BD042668002520B108E001200AB0BDE888
:103B9000F08184F8BC54204600F05EF8032084F8DD
:103BA000BD04F06BC00500D42561206806F0D8FB89
:103BB00004F11001282288466846FDF73DFA94E892
:103BC0000F0006F037FA0226C8BB0021206806F075
:103BD000C1FE002001270EE000EBC00104EB8101D3
:103BE00081F83D7001F83C0F08810D71CD600D61C9
:103BF000401CC0B28D6161688142EDD8002011E0A7
:103C000000EBC00104EB810181F87D5281F87C0258
:103C100081F88052C1F88852C1F88C52401CC0B261
:103C2000C1F8945261688142EAD828224146684628
:103C3000FDF702FA94E80F0006F0D8FA10B184F804
:103C4000BD64A2E784F8385084F8BD74206806F09B
:103C5000BFFA00209AE7000010B586B00446142190
:103C60006846FDF73DFA2068B0F1A04F2FD1194802
:103C70000021026842F001020260006800F00100C9
:103C800005904FF4E05000900220CDE9010103209F
:103C900003900A20049069460F48FFF789F90D4800
:103CA000001D016841F0800101600A48143001687C
:103CB00041F4804101600068002200F480400590DA
:103CC00005214320FFF710FB4320FFF7FFFA06B062
:103CD00010BD0000303802400000024070B50446BC
:103CE000C068012570B1022801D0FEF7F0FA29461C
:103CF000D4F8080505F0D0FED4F80805BDE87040FA
:103D000005F085BE0025F2E7D0F8080505F0ADBE48
:103D1000D0F8080505F0B3BE10B5044690F8BC0411
:103D200001280BD0012084F8BC0484F838102068E6
:103D300006F03EFE002084F8BC0410BD022010BD39
:103D4000D0F8082500F2C441104605F0B1BE10B508
:103D50000446006894F8BC14012906D0012184F8B7
:103D6000BC14A16A012902D008E0022010BDA1699B
:103D7000012903D0816B41F480318163206806F012
:103D800048FD206806F016FA002084F8BC0410BD37
:103D900010B50446D0F8080505F0CCFE2068D0F830
:103DA000001E41F00101C0F8001E206A002804D066
:103DB0000248016841F00601016010BD10ED00E00D
:103DC0002DE9F0470E46050065D0DFF81481D8F8DC
:103DD0000000F7B200F00700B04207D288F8007088
:103DE000D8F8000000F00700B04254D128683D4CDC
:103DF000810712D5400703D5206840F4E0502060C9
:103E00002878000703D5206840F4604020602068CF
:103E1000A96820F0F000084320602878C0072DD062
:103E2000304968680839012812D0022813D00328C5
:103E300011D00968890700292DDA216821F00301D2
:103E400001432160FFF7B2F9814641F2883A0EE062
:103E500009688903EFE709688901ECE7FFF7A6F92C
:103E6000A0EB0901514502D90320BDE8F087206885
:103E7000696800F00C00B0EB810FEFD1D8F80010AA
:103E8000404601F00701B14207D90770006800F011
:103E90000700B04201D00120E7E72878400705D5A8
:103EA0002068E96820F4E050084320602878000783
:103EB00006D52068296920F4604040EAC1002060EE
:103EC00000F05EF82168084AC1F30311515CC84054
:103ED0000649086006480068FFF790F90020C4E72B
:103EE000003C024008380240D4EC00087C0000206E
:103EF000740000200F2202600C4A136803F00303D1
:103F00004360136803F0F0038360136803F4E05325
:103F1000C36012684FF4E05303EAD202026104481E
:103F2000006800F007000860704700000838024091
:103F3000003C024001480068704700007C000020FF
:103F40000448054900680968044AC1F38221515CAC
:103F5000C84070477C00002008380240E4EC0008AC
:103F60000448054900680968044AC1F34231515CBC
:103F7000C84070477C00002008380240E4EC00088C
:103F8000154810B5006810F00C02144813D01449FD
:103F9000042A0FD0082A0ED10F4C241F2268236850
:103FA00002F03F025B0207D52068C0F38810A0FB37
:103FB000010106E0084610BD2168C1F38811A1FB8C
:103FC00000010023FCF77CFF2168C1F30141491C7B
:103FD0004900B0FBF1F010BD083802400024F400A5
:103FE000001BB7002DE9F84F04006ED02078DFF8F1
:103FF0004C93C007A9F104054AD009F104000168F7
:10400000C1F38101012908D00068C0F381000228B2
:104010000AD1D9F80000400206D52868800337D5B8
:1040200060680028E1D033E06068B0F5803F10D0D0
:10403000B0F5A02F286810D020F4803028602868C0
:1040400020F4802028606068A8B1FFF7AFF806462A
:104050000DE0286840F48030F4E740F480202860C8
:10406000F7E700BFFFF7A2F8801B642873D8286821
:104070008003F7D50CE0FFF799F8064605E000BF8E
:10408000FFF794F8801B6428F0D828688003F7D4E1
:104090002078DFF8AC8280074FF0000A3ED5A748B1
:1040A000001D016811F00C0F08D00068C0F38100FA
:1040B00002280BD1D9F80000400207D428688007F5
:1040C00016D5E068012800D112E033E1E068B8B10C
:1040D0000120C8F80000FFF769F8064605E000BFB8
:1040E000FFF764F8801B0228C0D828688007F7D53E
:1040F0002868216920F0F80040EAC10028600DE03E
:10410000C8F800A0FFF752F8064604E0FFF74EF8A3
:10411000801B02281FD828688007F7D42078000762
:1041200022D5864F87486169703771B101210160DE
:10413000FFF73CF8064604E0FFF738F8801B02283A
:1041400009D838688007F7D50EE0C0F800A0FFF75F
:104150002DF8064605E082E0FFF728F8801B0228CC
:104160007DD838688007F7D42078400768D5DFF815
:10417000CCB100270BF13C0BDBF80000C0000BD4E6
:10418000DBF8001041F08051CBF80010DBF80000A4
:10419000012700F0805000906B4E3068C00510D4AD
:1041A000306840F480703060FFF700F8009005E060
:1041B000FEF7FCFF0099401A022850D83068C0056D
:1041C000F6D55E4EA0686C3601280FD00528306801
:1041D00010D020F001003060306820F00400306022
:1041E000A068B8B1FEF7E2FF00900FE0306840F041
:1041F0000100F4E740F004003060F7E7FEF7D6FF77
:104200000099411A41F28830814266D830688007AF
:10421000F4D50EE0FEF7CAFF009007E0FEF7C6FFF8
:104220000099411A41F28830814256D8306880079F
:10423000F4D42FB1DBF8001021F08051CBF800103E
:10424000A069C8B33D49091D0968C1F3810102296C
:104250004AD00228504607D0C8F8600000E03CE091
:10426000FEF7A4FF04463BE04746C8F86000FEF7AF
:104270009DFF064605E000BFFEF798FF801B022861
:104280002BD828688001F7D4D4E907010843A16A34
:104290002E4A490802EB0141626A41EA8211084351
:1042A00094F82C1040EA0161C9F80010012038662A
:1042B000FEF77CFF044606E03EE000BFFEF776FF17
:1042C000001B022809D828688001F7D534E000BF18
:1042D000FEF76CFF001B022802D90320BDE8F88F0F
:1042E00028688001F4D427E00128F7D0D9F800002D
:1042F000E26900F4800191421CD1226A00F03F0182
:10430000914217D147F6C071626A0140B1EB821F3A
:1043100010D1A26A4FF0FF3300F4403103EB520298
:10432000B1EB024F06D194F82C1000F07060B0EBA6
:10433000016F01D00120D1E70020CFE7043802400F
:1043400000004742800E4742007000400000FFFF1F
:1043500070B5040009D0606A002540B1256165612F
:10436000A56294F8510040B10CE0012070BD606876
:10437000B0F5827FF4D0E561F2E784F85050204632
:1043800000F044F8022084F851002068016821F010
:1043900040010160A088218900F4827001F4044189
:1043A0000843A18901F400610843217C01F0020166
:1043B0000843217D01F001010843218B01F40071C4
:1043C0000843217F01F03801084394F8201001F0E0
:1043D00080010843218D01F40051084321680860E1
:1043E000A069042101EA104094F8241001F01001A2
:1043F0000843216848602068C16921F40061C161F7
:104400006565012084F85100002070BD2DE9F0435E
:1044100087B0064614216846FCF762FE34493068CE
:10442000884261D133480025016841F48051016020
:10443000006800F4805005902E481438016841F05F
:1044400002010160016801F002010591016841F07B
:10445000010101600068022400F0010005901820AD
:1044600001274FF003084FF005098DE891036946D5
:104470002148FEF79DFD80208DE8910369461F4885
:10448000FEF796FD1F4C1E484FF0C0672060C4E940
:1044900001754FF48068C4E9035865614FF4003931
:1044A000A561C4E9075920466562FEF7F7FC08B12B
:1044B000FDF70DFFF464A663124C114860344830D8
:1044C000E4E802074020A4E821010E4844F814590A
:1044D0006030A561C4E907596562FEF7DFFC08B1E9
:1044E000FDF7F5FEB464A66307B0BDE8F0830000F5
:1044F0000030014044380240000402400000024005
:1045000010640240F80600202DE9F84F044690F8A8
:10451000500000270A9E1D4692468B464FF0010927
:1045200001280ED0012084F85000FEF73FFE80469F
:1045300094F85100616801280CD0B1F5827F07D151
:1045400002E00220BDE8F88FA16809B9042801D073
:104550000227C2E0BBF1000F27D0BAF1000F24D030
:104560001DB394F85100042802D0052084F85100AE
:1045700000206065C4F838A0E587A587C4F830B08E
:10458000E586A5862064606420680168490603D436
:10459000016841F040010160E068B0F5006F6068BB
:1045A00005D0E8B3012D46D07FE0012795E008B1A2
:1045B000012D39D1206B21680088C860206B801CD8
:1045C0002063E08E401EE0862EE020688168890727
:1045D0000FD5E18E69B1B9F1010F0AD1216B0988BC
:1045E000C160206B801C2063E08E401EE0864FF08F
:1045F000000920688168C9070CD0E18F51B1C068FB
:10460000A16B0880A06B801CA063E08F401EE08738
:104610004FF00109FEF7CAFDA0EB0800B04200E030
:1046200009E001D3701C50D1E08E0028CDD1E08F7D
:104630000028CAD13FE0206B216800780873206B06
:10464000401C2063E08E401EE0862EE020688168DA
:1046500089070FD5E18E69B1B9F1010F0AD1216B3C
:1046600009780173206B401C2063E08E401EE086B9
:104670004FF0000920688168C9070CD0E18F51B163
:10468000C068A16B0870A06B401CA063E08F401E47
:10469000E0874FF00109FEF789FDA0EB0800B0426A
:1046A00002D3701C01D010E07EB1E08E0028CDD185
:1046B000E08F0028CAD142463146204604F060F817
:1046C00028B101272020606507E0032705E0A068E6
:1046D00018B92068C16880680090012084F85100F2
:1046E000002084F8500038462CE77047704710B51A
:1046F00090F83C20012A22D0012280F83C20CA6890
:104700008C6822F4407222434C6822F48062224377
:104710000C6822F4006222430C6922F48052224386
:104720004C6922F400522243C969002322F48042DA
:104730000A4301684A6480F83C30002010BD022022
:1047400010BD000070B590F83C20012A32D0012441
:1047500080F83C40022280F83D2003685A689D683A
:1047600022F070060A6832435A60134B02689A427C
:1047700014D0B2F1804F11D0104B9A420ED0104B92
:104780009A420BD00F4B9A4208D00F4B9A4205D059
:104790000E4B9A4202D00E4B9A4204D1496825F042
:1047A00080031943916080F83D40002180F83C105F
:1047B000084670BD022070BD0000014000040040AA
:1047C00000080040000C004000040140004001408F
:1047D0000018004010B5040003D094F83D0010B15B
:1047E00007E0012010BD002084F83C00204600F0C6
:1047F0001FF8022084F83D00211D206804F0F0F825
:10480000012084F8460084F83E0084F83F0084F8D4
:10481000400084F8410084F8420084F8430084F8A2
:10482000440084F8450084F83D00002010BD0000DD
:1048300008B5174A01681748914207D1016841F04D
:1048400001010160006800F0010015E0124A914288
:1048500008D1016841F002010160006800F0020027
:10486000009008BD0D4A9142FBD1016841F400312E
:104870000160006800F40030009000220F21192030
:10488000FEF732FDBDE808401920FEF71FBD00000D
:10489000000001404438024000040140004401404F
:1048A00090F83D10012901D001207047022180F8C5
:1048B0003D1000681149884214D0B0F1804F11D0EA
:1048C0000F4988420ED00F4988420BD00E498842CA
:1048D00008D00E49884205D00D49884202D00D49C2
:1048E000884204D1816801F00701062903D00168DC
:1048F00041F001010160002070470000000001400C
:104900000004004000080040000C0040000401408A
:10491000004001400018004090F83D10012901D0EE
:1049200001207047022180F83D100168CA6842F0FA
:104930000102CA6000681149884214D0B0F1804F6A
:1049400011D00F4988420ED00E4988420BD00E4933
:10495000884208D00D49884205D00D49884202D0CE
:104960000C49884204D1816801F00701062903D06F
:10497000016841F001010160002070470000014022
:104980000004004000080040000C0040000401400A
:10499000004001400018004070B5044690F83C000B
:1049A0000025012817D0012684F83C60022084F8F5
:1049B0003D002068826822F0770222F47F42826004
:1049C0000868502838D00DDC20284FD005DC90B383
:1049D000102811D14AE0022070BD302846D040286E
:1049E0000AD13BE060282FD070280DD0B0F5805F51
:1049F00003D0B0F5005F12D0012584F83D6000209F
:104A000084F83C00284670BDCB68D1E901212068BC
:104A100004F057F82068816841F0770109E0CB681D
:104A2000D1E90121206804F04CF82068816841F444
:104A300080418160E1E719E0CA684968206804F0B4
:104A40002AF95021206806E0CA684968206804F005
:104A500033F96021206804F03EF8CEE7CA6849685F
:104A6000206804F018F940212068F4E72268014624
:104A70001046F0E7704770B50446006801694FF0D2
:104A80000005C943890715D4C168C943890711D4F2
:104A9000E91E016101202077206880698007204697
:104AA00002D0FFF7E7FF04E000F008F9204600F02D
:104AB0009AF9257720680169C943490717D4C16865
:104AC000C943490713D46FF0040101610220207724
:104AD0002068806910F4407F204602D0FFF7CAFFAB
:104AE00004E000F0EBF8204600F07DF9257720681F
:104AF0000169C943090716D4C168C943090712D41B
:104B00006FF008010161042020772068C0698007E8
:104B1000204602D0FFF7AEFF04E000F0CFF82046B9
:104B200000F061F9257720680169C943C90617D4E7
:104B3000C168C943C90613D46FF010010161082090
:104B400020772068C06910F4407F204602D0FFF72C
:104B500091FF04E000F0B2F8204600F044F9257718
:104B600020680169C943C90708D1C168C943C90799
:104B700004D1891E0161204600F09AF9206801697C
:104B8000C943090609D4C168C943090605D46FF0B1
:104B9000800101612046FFF7A8FD20680169C94333
:104BA000490609D4C168C943490605D46FF04001DC
:104BB0000161204600F083F920680169C943890634
:104BC0000BD4C168C943890607D46FF02001016185
:104BD0002046BDE87040FFF789BD70BD70B586B056
:104BE000044614216846FCF77BFA2C4A216800240D
:104BF0002B4802250126914224D1016841F0010190
:104C00000160016801F001010591016841F01001A6
:104C100001600068694600F0100005904FF4407094
:104C20000090CDE90154CDE903461E48FEF7C0F9D6
:104C30004FF4C0400090CDE90154CDE903466946E8
:104C4000194813E0194B0322994213D1016841F42A
:104C5000807101600068694600F4807005906020F2
:104C60000090CDE90154CDE903421148FEF7A0F9C7
:104C700006B070BD0F4B9942FAD1016841F0200196
:104C800001600068694600F02000059040208DE832
:104C90006100CDE903520848E8E700000000014048
:104CA0003038024000000240001002400004014081
:104CB000002002400044014000140240704770B5DB
:104CC000044690F83C0000260D4601280FD0012034
:104CD00084F83C006AB1042A1DD0082A2FD00C2A7F
:104CE0003FD00126002084F83C00304670BD0220F1
:104CF00070BD206803F0F8FE2068816941F008016A
:104D000081612068816921F00401816120688169E5
:104D10002A69114311E0206803F016FF20688169B9
:104D200041F4006181612068816921F480618161C1
:104D3000206881692A6941EA02218161D2E72068FD
:104D400003F038FF2068C16941F00801C1612068A3
:104D5000C16921F00401C1612068C1692A69114358
:104D600011E0206803F05AFF2068C16941F4006136
:104D7000C1612068C16921F48061C1612068C16995
:104D80002A6941EA0221C161ACE710B5040003D0F1
:104D900094F83D0010B107E0012010BD002084F818
:104DA0003C00204600F01EF8022084F83D00211D42
:104DB000206803F015FE012084F8460084F83E00C8
:104DC00084F83F0084F8400084F8410084F84200F1
:104DD00084F8430084F8440084F8450084F83D00DA
:104DE000002010BD7047704710B50446022249B13B
:104DF00004290ED0082913D094F84100012816D0B8
:104E0000012010BD94F83E000128F9D184F83E201D
:104E10000FE094F83F000128F2D184F83F2008E029
:104E200094F840000128EBD184F8402001E084F898
:104E300041200122206803F037FE16492068164AF7
:104E4000884201D0904203D1436C43F40043436451
:104E50002068884213D0B0F1804F10D00F498842AB
:104E60000DD00F4988420AD00E49884207D090429F
:104E700005D00D49884202D00C49884204D181688E
:104E800001F00701062903D0016841F0010101602A
:104E9000002010BD0000014000040140000400405B
:104EA00000080040000C0040004001400018004095
:104EB0000068B0F1804F01D1FEF77EB970477047AE
:104EC00070477047F8B5016804460868CA684B69BE
:104ED00010F00F0F4FF0000559D003F0010602F457
:104EE0009077374365D0C10705D0D10503D5216C34
:104EF00041F001012164410705D5D90703D0216C98
:104F000041F002012164810705D5D90703D0216C46
:104F100041F004012164010707D502F0200131436B
:104F200003D0216C41F008012164216C00293AD0A2
:104F3000800604D5900602D5204603F0FEFE2068C8
:104F40004069216CC0F38010090700D460B320468B
:104F500003F0CCFE20684069400621D5206814305B
:104F600050E8001F21F0400140E80012002AF5D16E
:104F7000A06BA8B16C490165A06BFDF7ADFE0028E0
:104F800011D0A06B016D01B0BDE8F0400847830669
:104F90000FD593060DD52046BDE8F84003F0CDBEF1
:104FA0002046FFF78EFFF8BD2046FFF78AFF2564F5
:104FB000F8BD266B2023012E79D1C60677D5D606FB
:104FC00075D50868486800904869400640D5A16BCF
:104FD000086840680004000CEAD0A28D8242E7D93C
:104FE000E085C869B0F5807F2DD020680C3050E88E
:104FF000001F21F4807140E80012002AF5D12068DA
:10500000143050E8001F21F0010140E80012002A8E
:10501000F5D12068143050E8001F21F0400140E82D
:105020000012002AF5D184F83E30256320680C3048
:1050300050E8001F21F0100140E80012002AF5D1CD
:10504000A06BFDF700FEA08DE18D401A81B229E032
:10505000A08DE18D401A81B2E08D0028A8D00029F2
:10506000A6D020680C3050E8002F22F4907240E85F
:105070000026002EF5D12068143050E8002F22F0D1
:10508000010240E80026002EF5D184F83E30256369
:1050900020680C3050E8002F22F0100240E8002376
:1050A000002BF5D12046FFF70BFFF8BDFFE7050603
:1050B0002BD5150629D594F83D002128F5D1A068F7
:1050C000B0F5805F01D12069B0B1206A411C216236
:1050D000216800784860E08C401E0004000CE084E9
:1050E000E3D12068C16821F08001C1602068C168F7
:1050F00041F04001C160D8E7206A0088C0F3080091
:105100004860206A801C2062E5E74006CDD5500645
:10511000CBD5CA68204622F04002CA6084F83D30F0
:1051200000F0EDF8C1E70000DD8C000870B5040068
:1051300004D094F83D00002510B106E0012070BDB8
:1051400084F83C50204600F023F8242084F83D00E9
:105150002068C16821F40051C160204603F04EFE72
:105160002068016921F4904101612068416921F0C2
:105170002A0141612068C16841F40051C160256481
:10518000202084F83D0084F83E00002070BD00001F
:105190002DE9F04387B0064614216846FBF7A0FFCF
:1051A0004F484E4D316802220323002407154FF467
:1051B0008079A94239D14A4910310D6845F48025DA
:1051C0000D60096801F480210591016841F0040136
:1051D00001600068694600F00400059098028DE8BF
:1051E00015000720CDE903303E48FDF7E1FE3F4DB5
:1051F0003D4828607804C5E90104C5E903476C61AE
:10520000C5E906494FF44030C5E908042846FDF7D2
:1052100045FE08B1FDF75BF8B563002205212720A4
:10522000AE63FEF761F8272053E0314DA94252D119
:105230002B4914310D6845F020050D60096801F017
:1052400020010591016841F0400101600068694654
:1052500000F0400005904FF484408DE815000820D0
:10526000CDE903302348FDF7A3FE204D22486035E9
:105270004FF020682860C5E90184C5E903476C61E7
:10528000C5E906492C6228466C62FDF707FE08B1A5
:10529000FDF71DF8B563AE63144D1748C03578307F
:1052A000E5E80208402091C5104845F81449C0308F
:1052B000AC61EC612C626C62FDF7F0FD08B1FDF7AA
:1052C00006F87563002205214720AE63FEF70CF84F
:1052D0004720FDF7FBFF07B0BDE8F0830048004022
:1052E00030380240000802402860024018090020BF
:1052F00000140140001802402864024070477047C3
:1053000070B5044600203C4D2074A27B288861685B
:105310004243D4F8F400FBF78FFEA17B2888414379
:105320006068FBF7DDFEA07B10FB00F1288841439D
:10533000D4F81801FBF7D4FE207BA17B10FB01F110
:1053400028884143D4F80C01FBF7CAFE00202BE06B
:10535000D4F8F41001EB800292ED000AB5EEC00A19
:10536000F1EE10FA1ED0227C01EB820181ED000AE1
:10537000227C616A8854A169227B01EB8001237C35
:1053800091ED000A6169095C12FB03116FF00302E1
:1053900002EB8101D4F80C21114481ED000A217C3B
:1053A000491C2174401CC0B2A17B8142D0D800208E
:1053B00010E0636AE2691B5C02EB830292ED000A73
:1053C00010FB0101D4F81821401C02EB8101C0B28E
:1053D00081ED000A217C8142EBD8C8B224F8780F15
:1053E00014F86C0C608020816181218361832084AA
:1053F000618424F8301C70BD04030020FEE7000027
:10540000F0B58D4C0F462DED068B054687B0164640
:10541000D0ED040A94ED050A884830EEC00AB0EEDB
:10542000C00A10EE101A814219DC95ED050A94EDC0
:10543000061A30EE410AB0EEC00A10EE101A814290
:105440000DDC95ED060A94ED071A30EE410AB0EE38
:10545000C00A10EE101A814201DC2878F0B39FEDEB
:10546000789A80EE890AFAF783FFF0EE400AF0EEB0
:10547000609AD5ED050A80EE890AFAF779FFD5ED35
:10548000060AF0EE401A80EE890AB0EE61AAFAF739
:105490006FFFD5ED040AF0EE40AA80EE890AFAF714
:1054A000A3FFF0EE400AB0EE608AD5ED050A80EE6B
:1054B000890AFAF799FFD5ED060AF0EE408A80EEE8
:1054C000890AFAF791FF29EEAA2A68EE280AB0EEB7
:1054D000401AB0EE420A00EE810A00E02BE084EDB3
:1054E000080A2AEE080A6AEE880A002084ED090AF2
:1054F00029EE810A00EEE80A84ED0A0A29EEA80ADC
:1055000020EE010A0AEEC80A84ED0B0A29EE8A0A87
:1055100084ED0C0A28EE410A02EE680A84ED0D0AB9
:105520002AEE410A84ED0E0A2AEE2A0AC4ED0F8AF9
:1055300084ED100A287000204FEA0D0107EB80026D
:1055400092ED000A05EB8002D2ED010A01EB800228
:10555000401C20EE200AC0B2032882ED000AEDD3E1
:105560009DED000AD4ED085A9DED011A94ED094A0B
:1055700020EE252ADDED020AD4ED0A1A002004EE01
:10558000012A03A901EEA02A87ED002A94ED0B3A27
:10559000D4ED0C2A94ED0D2A60EE033A42EE813AE6
:1055A00042EE203AC7ED013AD4ED0E3AD4ED0F4A5F
:1055B00094ED105A20EE230A04EE810A05EE200A2B
:1055C00087ED020A06EB800292ED000A01EB8002F1
:1055D000401CC0B282ED000A0328F3D39DED031AEC
:1055E000DDED040A9DED050A61EE255A44EE205AD0
:1055F00041EE805A61EE031A21EE231A42EEA01A00
:1056000004EEA01AC6ED005A42EE001A05EE001A8A
:10561000C6ED011A86ED021A95ED040A84ED050A1D
:1056200095ED050A84ED060A95ED060A84ED070A54
:1056300007B0BDEC068BF0BD2C0200206F12833A40
:10564000E12E654270B5284C01252DED028B04F545
:10565000D8702570B7EE008A80EC030A00209FED19
:10566000230A84ED710A84F83801C4E95000C4E9C2
:10567000520011EE900AB0F17E5F01DDF0EE481AA3
:10568000C4ED721A84ED642A032300220621201D32
:1056900000F03CFF54F8EC0F9FED150A902280EDCE
:1056A000008A54F86409174980ED010A606E80EDA4
:1056B000020A606E80ED030A0E48A0640E48E064A2
:1056C0000E4820650E48606504F85A5C04F8595C81
:1056D000E06FFBF7B1FC606F9022BDEC028B0A49D2
:1056E000BDE87040FBF7A8BC58700020CDCCCC3D85
:1056F000000000000D570008195C00084157000821
:10570000715D0008A8ED00084C03002010B50446A8
:10571000902254F8F81F0848FBF78EFC48220748EF
:10572000616AFBF789FC054861694822BDE81040C1
:105730004830FBF781BC00004C0300203072002091
:1057400070B50446B0EE000A54F8EC0F2B4DD0EDC6
:10575000000A60EE800AC5ED090AD0ED010A60EE8C
:10576000800AC5ED0A0AD0ED020A60EE800AC5ED96
:105770000B0AD0ED030A20EE800A85ED0C0A14F81E
:10578000DE0C14F8E01C10FB01F11D4800884143B9
:10579000206AFBF7A5FCD5ED0B1A206AB1EE612A51
:1057A00080ED002A206AD5ED0C0AC0ED010A95EDC6
:1057B000090A206AB1EE401A80ED021A206A95EDBE
:1057C0000A1A80ED031A206A80ED061A206A80ED1D
:1057D000070A206AC0ED080A206AC0ED091A206A8B
:1057E00080ED0C0A206AB1EE410A80ED0D0A206AB4
:1057F00080ED0E2A206AC0ED0F0A70BD080300205C
:105800000403002070B5F74C2DED088BB0EE438AF1
:10581000B0EE629AF0EE429AB0EE61AA2078F0EE15
:1058200041AAB0EE60BAF0EE40BADFEDEF8A58B9A7
:10583000B0EE682AF7EE001A9FEDEC1ADFEDEC0AE5
:10584000B2EE040AFFF7FEFED4E95201084305D187
:1058500084ED5EAAC4ED5F9A84ED609A84ED6F8A50
:1058600094ED580AE34D90223BEEC01AE24984EDD4
:105870005B1A94ED590A7BEE400AC4ED5C0A94ED84
:105880005A0A7AEEC01AB6EE000A21EE001A60EE4D
:10589000800A21EE800AC4ED5D1A21EE081A60EE3E
:1058A000880A20EE080A85ED001AC5ED010A85ED8B
:1058B000020AD4F8040104F58274FBF7BDFBD5EDB0
:1058C000001A2068B1EE610A80ED010AD5ED010AE7
:1058D0002068B1EE602A80ED022A95ED021A206858
:1058E000F1EE412AC0ED032A2068C0ED061A2068B7
:1058F00080ED081A206880ED092A2068C0ED0C0AA6
:105900002068C0ED0D2A2068C0ED0F1A206880EDD8
:10591000121A2068C0ED130A206880ED140A94ED75
:105920001D0AD4ED230A94ED2E1A20EE202A31EE22
:10593000200AC2EE001A21EE0A2AC2EE002A31EE37
:10594000A22A84ED1D2AD4ED1E1A61EEA02AC2EE11
:10595000801A61EE292A21EE091A82EE803A71EE50
:10596000831AC4ED1E1AD4ED1F2A62EEA02AC2EEDD
:10597000800AC1EE002A22EE020A01EEA10A70EEB0
:10598000A20AC4ED1F0A00EEA00AA4F5827406F074
:105990003DFF85ED030A002004EB8001D1ED5E0A96
:1059A000A16801EB800160EE800A401CC0B2C1ED2D
:1059B000000A0328F0D394ED5B0AD4ED5C0A20EED4
:1059C000000A00EEA00AD4ED5D0A00EEA00A06F07F
:1059D0001DFFB7EE008A8949C8EE000AC4ED650ACA
:1059E00095ED031A10EE900A88EE010A884284EDC4
:1059F000660A0BDA10EE100A8149884206DD10EEC5
:105A0000100A8049884201DA012000E0002084F871
:105A1000390194ED6C0AD4ED6F0AD4F8180120EE28
:105A2000200A80ED000A94ED6C0AD4ED6F0AD4F8D8
:105A3000180120EE200A80ED070A94ED6C0AD4EDDF
:105A40006F0AD4F8180120EE200A80ED0E0A94EDBA
:105A50006C0AD4ED6F0AD4F8180120EE200A80ED0C
:105A6000150A94ED6D0AD4ED6F0AD4F8180120EEF2
:105A7000200A80ED1C0A94ED6D0AD4ED6F0AD4F86B
:105A8000180120EE200A80ED230AD4F81C0194EDC1
:105A90006E0A80ED000AD4F81C0194ED6E0A80EDC8
:105AA000040AD4F81C0194ED6E0A80ED080A201D4A
:105AB00001F016F8606890ED001A84ED541A90ED2C
:105AC000010A61EE012A84ED550AD0ED021AC4EDF7
:105AD000561A90ED032A40EE002A84ED572AD0EDA5
